{
  "_format": "hh-sol-artifact-1",
  "contractName": "ChipTable",
  "sourceName": "contracts/src/chipTable.sol",
  "abi": [
    {
      "inputs": [
        {
          "internalType": "address",
          "name": "_contractOwner",
          "type": "address"
        },
        {
          "internalType": "string",
          "name": "_registryVersion",
          "type": "string"
        }
      ],
      "stateMutability": "nonpayable",
      "type": "constructor"
    },
    {
      "anonymous": false,
      "inputs": [
        {
          "indexed": false,
          "internalType": "bytes32",
          "name": "chipId",
          "type": "bytes32"
        },
        {
          "indexed": false,
          "internalType": "address",
          "name": "tsmAddress",
          "type": "address"
        }
      ],
      "name": "ChipRegistered",
      "type": "event"
    },
    {
      "anonymous": false,
      "inputs": [
        {
          "indexed": true,
          "internalType": "address",
          "name": "previousOwner",
          "type": "address"
        },
        {
          "indexed": true,
          "internalType": "address",
          "name": "newOwner",
          "type": "address"
        }
      ],
      "name": "OwnershipTransferred",
      "type": "event"
    },
    {
      "anonymous": false,
      "inputs": [
        {
          "indexed": false,
          "internalType": "address",
          "name": "tsmAddress",
          "type": "address"
        },
        {
          "indexed": false,
          "internalType": "address",
          "name": "operator",
          "type": "address"
        }
      ],
      "name": "TSMApproved",
      "type": "event"
    },
    {
      "anonymous": false,
      "inputs": [
        {
          "indexed": false,
          "internalType": "address",
          "name": "tsmAddress",
          "type": "address"
        },
        {
          "indexed": false,
          "internalType": "string",
          "name": "tsmUri",
          "type": "string"
        }
      ],
      "name": "TSMRegistered",
      "type": "event"
    },
    {
      "anonymous": false,
      "inputs": [
        {
          "indexed": false,
          "internalType": "address",
          "name": "tsmAddress",
          "type": "address"
        },
        {
          "indexed": false,
          "internalType": "string",
          "name": "tsmUri",
          "type": "string"
        }
      ],
      "name": "TSMUpdate",
      "type": "event"
    },
    {
      "inputs": [
        {
          "internalType": "address",
          "name": "tsmAddress",
          "type": "address"
        },
        {
          "internalType": "bytes32",
          "name": "chipId",
          "type": "bytes32"
        },
        {
          "internalType": "bytes",
          "name": "signature",
          "type": "bytes"
        }
      ],
      "name": "addChipId",
      "outputs": [],
      "stateMutability": "nonpayable",
      "type": "function"
    },
    {
      "inputs": [
        {
          "internalType": "address",
          "name": "tsmAddress",
          "type": "address"
        },
        {
          "internalType": "bytes32[]",
          "name": "chipIds",
          "type": "bytes32[]"
        },
        {
          "internalType": "bytes[]",
          "name": "signatures",
          "type": "bytes[]"
        }
      ],
      "name": "addChipIds",
      "outputs": [],
      "stateMutability": "nonpayable",
      "type": "function"
    },
    {
      "inputs": [
        {
          "internalType": "address",
          "name": "operator",
          "type": "address"
        }
      ],
      "name": "approve",
      "outputs": [],
      "stateMutability": "nonpayable",
      "type": "function"
    },
    {
      "inputs": [
        {
          "internalType": "bytes32",
          "name": "chipId",
          "type": "bytes32"
        }
      ],
      "name": "chipExists",
      "outputs": [
        {
          "internalType": "bool",
          "name": "",
          "type": "bool"
        }
      ],
      "stateMutability": "view",
      "type": "function"
    },
    {
      "inputs": [
        {
          "internalType": "bytes32",
          "name": "chipId",
          "type": "bytes32"
        }
      ],
      "name": "chipTSM",
      "outputs": [
        {
          "internalType": "address",
          "name": "",
          "type": "address"
        }
      ],
      "stateMutability": "view",
      "type": "function"
    },
    {
      "inputs": [
        {
          "internalType": "bytes32",
          "name": "chipId",
          "type": "bytes32"
        }
      ],
      "name": "chipUri",
      "outputs": [
        {
          "internalType": "string",
          "name": "",
          "type": "string"
        }
      ],
      "stateMutability": "view",
      "type": "function"
    },
    {
      "inputs": [],
      "name": "owner",
      "outputs": [
        {
          "internalType": "address",
          "name": "",
          "type": "address"
        }
      ],
      "stateMutability": "view",
      "type": "function"
    },
    {
      "inputs": [
        {
          "internalType": "address",
          "name": "tsmAddress",
          "type": "address"
        },
        {
          "internalType": "bytes32[]",
          "name": "chipIds",
          "type": "bytes32[]"
        }
      ],
      "name": "registerChipIds",
      "outputs": [],
      "stateMutability": "nonpayable",
      "type": "function"
    },
    {
      "inputs": [
        {
          "internalType": "address",
          "name": "tsmAddress",
          "type": "address"
        },
        {
          "internalType": "string",
          "name": "uri",
          "type": "string"
        }
      ],
      "name": "registerTSM",
      "outputs": [],
      "stateMutability": "nonpayable",
      "type": "function"
    },
    {
      "inputs": [],
      "name": "registryVersion",
      "outputs": [
        {
          "internalType": "string",
          "name": "",
          "type": "string"
        }
      ],
      "stateMutability": "view",
      "type": "function"
    },
    {
      "inputs": [],
      "name": "renounceOwnership",
      "outputs": [],
      "stateMutability": "nonpayable",
      "type": "function"
    },
    {
      "inputs": [
        {
          "internalType": "address",
          "name": "tsmAddress",
          "type": "address"
        },
        {
          "internalType": "bytes32[]",
          "name": "chipIds",
          "type": "bytes32[]"
        },
        {
          "internalType": "bytes[]",
          "name": "signatures",
          "type": "bytes[]"
        }
      ],
      "name": "safeRegisterChipIds",
      "outputs": [],
      "stateMutability": "nonpayable",
      "type": "function"
    },
    {
      "inputs": [
        {
          "internalType": "bytes4",
          "name": "interfaceId",
          "type": "bytes4"
        }
      ],
      "name": "supportsInterface",
      "outputs": [
        {
          "internalType": "bool",
          "name": "",
          "type": "bool"
        }
      ],
      "stateMutability": "pure",
      "type": "function"
    },
    {
      "inputs": [],
      "name": "totalTSMs",
      "outputs": [
        {
          "internalType": "uint256",
          "name": "",
          "type": "uint256"
        }
      ],
      "stateMutability": "view",
      "type": "function"
    },
    {
      "inputs": [
        {
          "internalType": "address",
          "name": "newOwner",
          "type": "address"
        }
      ],
      "name": "transferOwnership",
      "outputs": [],
      "stateMutability": "nonpayable",
      "type": "function"
    },
    {
      "inputs": [
        {
          "internalType": "uint256",
          "name": "index",
          "type": "uint256"
        }
      ],
      "name": "tsmByIndex",
      "outputs": [
        {
          "internalType": "address",
          "name": "",
          "type": "address"
        }
      ],
      "stateMutability": "view",
      "type": "function"
    },
    {
      "inputs": [
        {
          "internalType": "address",
          "name": "tsmAddress",
          "type": "address"
        }
      ],
      "name": "tsmOperator",
      "outputs": [
        {
          "internalType": "address",
          "name": "",
          "type": "address"
        }
      ],
      "stateMutability": "view",
      "type": "function"
    },
    {
      "inputs": [
        {
          "internalType": "string",
          "name": "uri",
          "type": "string"
        }
      ],
      "name": "tsmSetUri",
      "outputs": [],
      "stateMutability": "nonpayable",
      "type": "function"
    },
    {
      "inputs": [
        {
          "internalType": "address",
          "name": "tsmAddress",
          "type": "address"
        }
      ],
      "name": "tsmUri",
      "outputs": [
        {
          "internalType": "string",
          "name": "",
          "type": "string"
        }
      ],
      "stateMutability": "view",
      "type": "function"
    }
  ],
  "bytecode": "0x60806040523480156200001157600080fd5b5060405162003067380380620030678339818101604052810190620000379190620003f3565b620000576200004b6200009160201b60201c565b6200009960201b60201c565b62000068826200015d60201b60201c565b6000600481905550806005908051906020019062000088929190620002ae565b50505062000746565b600033905090565b60008060009054906101000a900473ffffffffffffffffffffffffffffffffffffffff169050816000806101000a81548173ffffffffffffffffffffffffffffffffffffffff021916908373ffffffffffffffffffffffffffffffffffffffff1602179055508173ffffffffffffffffffffffffffffffffffffffff168173ffffffffffffffffffffffffffffffffffffffff167f8be0079c531659141344cd1fd0a4f28419497f9722a3daafe3b4186f6b6457e060405160405180910390a35050565b6200016d620001f460201b60201c565b600073ffffffffffffffffffffffffffffffffffffffff168173ffffffffffffffffffffffffffffffffffffffff161415620001e0576040517f08c379a0000000000000000000000000000000000000000000000000000000008152600401620001d790620004a7565b60405180910390fd5b620001f1816200009960201b60201c565b50565b620002046200009160201b60201c565b73ffffffffffffffffffffffffffffffffffffffff166200022a6200028560201b60201c565b73ffffffffffffffffffffffffffffffffffffffff161462000283576040517f08c379a00000000000000000000000000000000000000000000000000000000081526004016200027a90620004c9565b60405180910390fd5b565b60008060009054906101000a900473ffffffffffffffffffffffffffffffffffffffff16905090565b828054620002bc90620005c5565b90600052602060002090601f016020900481019282620002e057600085556200032c565b82601f10620002fb57805160ff19168380011785556200032c565b828001600101855582156200032c579182015b828111156200032b5782518255916020019190600101906200030e565b5b5090506200033b91906200033f565b5090565b5b808211156200035a57600081600090555060010162000340565b5090565b6000620003756200036f8462000514565b620004eb565b90508281526020810184848401111562000394576200039362000694565b5b620003a18482856200058f565b509392505050565b600081519050620003ba816200072c565b92915050565b600082601f830112620003d857620003d76200068f565b5b8151620003ea8482602086016200035e565b91505092915050565b600080604083850312156200040d576200040c6200069e565b5b60006200041d85828601620003a9565b925050602083015167ffffffffffffffff81111562000441576200044062000699565b5b6200044f85828601620003c0565b9150509250929050565b6000620004686026836200054a565b91506200047582620006b4565b604082019050919050565b60006200048f6020836200054a565b91506200049c8262000703565b602082019050919050565b60006020820190508181036000830152620004c28162000459565b9050919050565b60006020820190508181036000830152620004e48162000480565b9050919050565b6000620004f76200050a565b9050620005058282620005fb565b919050565b6000604051905090565b600067ffffffffffffffff82111562000532576200053162000660565b5b6200053d82620006a3565b9050602081019050919050565b600082825260208201905092915050565b600062000568826200056f565b9050919050565b600073ffffffffffffffffffffffffffffffffffffffff82169050919050565b60005b83811015620005af57808201518184015260208101905062000592565b83811115620005bf576000848401525b50505050565b60006002820490506001821680620005de57607f821691505b60208210811415620005f557620005f462000631565b5b50919050565b6200060682620006a3565b810181811067ffffffffffffffff8211171562000628576200062762000660565b5b80604052505050565b7f4e487b7100000000000000000000000000000000000000000000000000000000600052602260045260246000fd5b7f4e487b7100000000000000000000000000000000000000000000000000000000600052604160045260246000fd5b600080fd5b600080fd5b600080fd5b600080fd5b6000601f19601f8301169050919050565b7f4f776e61626c653a206e6577206f776e657220697320746865207a65726f206160008201527f6464726573730000000000000000000000000000000000000000000000000000602082015250565b7f4f776e61626c653a2063616c6c6572206973206e6f7420746865206f776e6572600082015250565b62000737816200055b565b81146200074357600080fd5b50565b61291180620007566000396000f3fe608060405234801561001057600080fd5b50600436106101215760003560e01c8063715018a6116100ad578063d143d21e11610071578063d143d21e1461031a578063daea85c514610336578063f2fde38b14610352578063fc2c2e251461036e578063fe44ba7f1461038a57610121565b8063715018a6146102765780638da5cb5b14610280578063a845891e1461029e578063b7e83957146102ce578063bc9300bc146102fe57610121565b806334bcec73116100f457806334bcec73146101d45780633b71cad0146101f05780633f41f6561461020e5780636381fcdd1461022a57806363d99f2c1461025a57610121565b806301ffc9a71461012657806308306567146101565780630f9be51c146101865780632cc7a4ce146101a4575b600080fd5b610140600480360381019061013b91906119f3565b6103ba565b60405161014d9190611e83565b60405180910390f35b610170600480360381019061016b91906117d0565b610424565b60405161017d9190611e0d565b60405180910390f35b61018e61049b565b60405161019b9190611f0c565b60405180910390f35b6101be60048036038101906101b991906117d0565b61052d565b6040516101cb9190611f0c565b60405180910390f35b6101ee60048036038101906101e991906117fd565b61060c565b005b6101f86106a6565b604051610205919061212e565b60405180910390f35b6102286004803603810190610223919061185d565b6106b0565b005b610244600480360381019061023f91906119c6565b6107b9565b6040516102519190611f0c565b60405180910390f35b610274600480360381019061026f9190611a20565b6107d3565b005b61027e610884565b005b610288610898565b6040516102959190611e0d565b60405180910390f35b6102b860048036038101906102b391906119c6565b6108c1565b6040516102c59190611e0d565b60405180910390f35b6102e860048036038101906102e39190611a6d565b610949565b6040516102f59190611e0d565b60405180910390f35b6103186004803603810190610313919061185d565b6109ca565b005b610334600480360381019061032f9190611966565b610a8e565b005b610350600480360381019061034b91906117d0565b610b0f565b005b61036c600480360381019061036791906117d0565b610bec565b005b610388600480360381019061038391906118f2565b610c70565b005b6103a4600480360381019061039f91906119c6565b610c8d565b6040516103b19190611e83565b60405180910390f35b60007fb147e4c5000000000000000000000000000000000000000000000000000000007bffffffffffffffffffffffffffffffffffffffffffffffffffffffff1916827bffffffffffffffffffffffffffffffffffffffffffffffffffffffff1916149050919050565b60008161043081610c9f565b600160008473ffffffffffffffffffffffffffffffffffffffff1673ffffffffffffffffffffffffffffffffffffffff16815260200190815260200160002060000160019054906101000a900473ffffffffffffffffffffffffffffffffffffffff16915050919050565b6060600580546104aa9061239b565b80601f01602080910402602001604051908101604052809291908181526020018280546104d69061239b565b80156105235780601f106104f857610100808354040283529160200191610523565b820191906000526020600020905b81548152906001019060200180831161050657829003601f168201915b5050505050905090565b60608161053981610c9f565b600160008473ffffffffffffffffffffffffffffffffffffffff1673ffffffffffffffffffffffffffffffffffffffff16815260200190815260200160002060010180546105869061239b565b80601f01602080910402602001604051908101604052809291908181526020018280546105b29061239b565b80156105ff5780601f106105d4576101008083540402835291602001916105ff565b820191906000526020600020905b8154815290600101906020018083116105e257829003601f168201915b5050505050915050919050565b610614610cea565b61061d83610d68565b61065c576040517f08c379a000000000000000000000000000000000000000000000000000000000815260040161065390611f2e565b60405180910390fd5b60005b828290508110156106a05761068d84848484818110610681576106806124a2565b5b90506020020135610dc8565b8080610698906123cd565b91505061065f565b50505050565b6000600454905090565b6106b8610cea565b6106c185610d68565b610700576040517f08c379a00000000000000000000000000000000000000000000000000000000081526004016106f790611f2e565b60405180910390fd5b818190508484905014610748576040517f08c379a000000000000000000000000000000000000000000000000000000000815260040161073f9061206e565b60405180910390fd5b60005b848490508110156107b15761079e8686868481811061076d5761076c6124a2565b5b90506020020135858585818110610787576107866124a2565b5b90506020028101906107999190612149565b610ea3565b80806107a9906123cd565b91505061074b565b505050505050565b60606107cc6107c7836108c1565b61052d565b9050919050565b6107db610efe565b6107e481610c9f565b8282600160006107f2610efe565b73ffffffffffffffffffffffffffffffffffffffff1673ffffffffffffffffffffffffffffffffffffffff168152602001908152602001600020600101919061083c929190611581565b507f3adb29fcd1e7fdc7b33cf5ab90f08845658f1dac367203673f7e4d37ef86510c610866610efe565b848460405161087793929190611e51565b60405180910390a1505050565b61088c610cea565b6108966000610f06565b565b60008060009054906101000a900473ffffffffffffffffffffffffffffffffffffffff16905090565b60006108cc82610fca565b61090b576040517f08c379a000000000000000000000000000000000000000000000000000000000815260040161090290611fce565b60405180910390fd5b6002600083815260200190815260200160002060000160009054906101000a900473ffffffffffffffffffffffffffffffffffffffff169050919050565b6000600454821061098f576040517f08c379a000000000000000000000000000000000000000000000000000000000815260040161098690611fee565b60405180910390fd5b6003600083815260200190815260200160002060009054906101000a900473ffffffffffffffffffffffffffffffffffffffff169050919050565b846109d481611039565b828290508585905014610a1c576040517f08c379a0000000000000000000000000000000000000000000000000000000008152600401610a1390611f8e565b60405180910390fd5b60005b85859050811015610a8557610a7287878784818110610a4157610a406124a2565b5b90506020020135868685818110610a5b57610a5a6124a2565b5b9050602002810190610a6d9190612149565b610ea3565b8080610a7d906123cd565b915050610a1f565b50505050505050565b610a96610cea565b610aa1838383611107565b8260036000600454815260200190815260200160002060006101000a81548173ffffffffffffffffffffffffffffffffffffffff021916908373ffffffffffffffffffffffffffffffffffffffff1602179055506001600454610b049190612219565b600481905550505050565b610b17610efe565b610b2081610c9f565b8160016000610b2d610efe565b73ffffffffffffffffffffffffffffffffffffffff1673ffffffffffffffffffffffffffffffffffffffff16815260200190815260200160002060000160016101000a81548173ffffffffffffffffffffffffffffffffffffffff021916908373ffffffffffffffffffffffffffffffffffffffff1602179055507fd948d2cc3b872740335be8a37ccf228cc17495c3195dc4a75c161bf8dcd568e8610bd1610efe565b83604051610be0929190611e28565b60405180910390a15050565b610bf4610cea565b600073ffffffffffffffffffffffffffffffffffffffff168173ffffffffffffffffffffffffffffffffffffffff161415610c64576040517f08c379a0000000000000000000000000000000000000000000000000000000008152600401610c5b90611f4e565b60405180910390fd5b610c6d81610f06565b50565b83610c7a81611039565b610c8685858585610ea3565b5050505050565b6000610c9882610fca565b9050919050565b610ca881610d68565b610ce7576040517f08c379a0000000000000000000000000000000000000000000000000000000008152600401610cde906120ee565b60405180910390fd5b50565b610cf2610efe565b73ffffffffffffffffffffffffffffffffffffffff16610d10610898565b73ffffffffffffffffffffffffffffffffffffffff1614610d66576040517f08c379a0000000000000000000000000000000000000000000000000000000008152600401610d5d9061204e565b60405180910390fd5b565b6000801515600160008473ffffffffffffffffffffffffffffffffffffffff1673ffffffffffffffffffffffffffffffffffffffff16815260200190815260200160002060000160009054906101000a900460ff16151514159050919050565b610dd181610fca565b15610e11576040517f08c379a0000000000000000000000000000000000000000000000000000000008152600401610e0890611fae565b60405180910390fd5b816002600083815260200190815260200160002060000160006101000a81548173ffffffffffffffffffffffffffffffffffffffff021916908373ffffffffffffffffffffffffffffffffffffffff1602179055507ffb004b53ebb7ed06e66f56949caf0ba61d9c4cf9909c2eece0347f65210435fd8183604051610e97929190611e9e565b60405180910390a15050565b610eaf848484846112be565b610eee576040517f08c379a0000000000000000000000000000000000000000000000000000000008152600401610ee5906120ae565b60405180910390fd5b610ef88484610dc8565b50505050565b600033905090565b60008060009054906101000a900473ffffffffffffffffffffffffffffffffffffffff169050816000806101000a81548173ffffffffffffffffffffffffffffffffffffffff021916908373ffffffffffffffffffffffffffffffffffffffff1602179055508173ffffffffffffffffffffffffffffffffffffffff168173ffffffffffffffffffffffffffffffffffffffff167f8be0079c531659141344cd1fd0a4f28419497f9722a3daafe3b4186f6b6457e060405160405180910390a35050565b60008073ffffffffffffffffffffffffffffffffffffffff166002600084815260200190815260200160002060000160009054906101000a900473ffffffffffffffffffffffffffffffffffffffff1673ffffffffffffffffffffffffffffffffffffffff1614159050919050565b61104281610d68565b80156110c5575061105281610424565b73ffffffffffffffffffffffffffffffffffffffff16611070610efe565b73ffffffffffffffffffffffffffffffffffffffff1614806110c457508073ffffffffffffffffffffffffffffffffffffffff166110ac610efe565b73ffffffffffffffffffffffffffffffffffffffff16145b5b611104576040517f08c379a00000000000000000000000000000000000000000000000000000000081526004016110fb9061210e565b60405180910390fd5b50565b61111083610d68565b15611150576040517f08c379a00000000000000000000000000000000000000000000000000000000081526004016111479061200e565b60405180910390fd5b60018060008573ffffffffffffffffffffffffffffffffffffffff1673ffffffffffffffffffffffffffffffffffffffff16815260200190815260200160002060000160006101000a81548160ff0219169083151502179055506000600160008573ffffffffffffffffffffffffffffffffffffffff1673ffffffffffffffffffffffffffffffffffffffff16815260200190815260200160002060000160016101000a81548173ffffffffffffffffffffffffffffffffffffffff021916908373ffffffffffffffffffffffffffffffffffffffff1602179055508181600160008673ffffffffffffffffffffffffffffffffffffffff1673ffffffffffffffffffffffffffffffffffffffff168152602001908152602001600020600101919061127d929190611581565b507fa0650bbfdaba1081dc90b421075337a344c6d3def1a3fdfc6190a4cc906701598383836040516112b193929190611e51565b60405180910390a1505050565b6000806000806000806041888890501461130d576040517f08c379a0000000000000000000000000000000000000000000000000000000008152600401611304906120ce565b60405180910390fd5b8787600090602092611321939291906121de565b9061132c91906122fa565b92508787602090604092611342939291906121de565b9061134d91906122fa565b915087876040818110611363576113626124a2565b5b9050013560f81c60f81b60f81c90507f7fffffffffffffffffffffffffffffff5d576e7357a4501ddfe92f46681b20a08260001c11156113d8576040517f08c379a00000000000000000000000000000000000000000000000000000000081526004016113cf9061202e565b60405180910390fd5b601b8160ff16141580156113f05750601c8160ff1614155b15611430576040517f08c379a000000000000000000000000000000000000000000000000000000000815260040161142790611f6e565b60405180910390fd5b896040516020016114419190611dcc565b604051602081830303815290604052805190602001206040516020016114679190611de7565b604051602081830303815290604052805190602001209350600184828585604051600081526020016040526040516114a29493929190611ec7565b6020604051602081039080840390855afa1580156114c4573d6000803e3d6000fd5b505050602060405103519450600073ffffffffffffffffffffffffffffffffffffffff168573ffffffffffffffffffffffffffffffffffffffff161415611540576040517f08c379a00000000000000000000000000000000000000000000000000000000081526004016115379061208e565b60405180910390fd5b8860001c73ffffffffffffffffffffffffffffffffffffffff168573ffffffffffffffffffffffffffffffffffffffff161495505050505050949350505050565b82805461158d9061239b565b90600052602060002090601f0160209004810192826115af57600085556115f6565b82601f106115c857803560ff19168380011785556115f6565b828001600101855582156115f6579182015b828111156115f55782358255916020019190600101906115da565b5b5090506116039190611607565b5090565b5b80821115611620576000816000905550600101611608565b5090565b6000813590506116338161287f565b92915050565b60008083601f84011261164f5761164e6124d6565b5b8235905067ffffffffffffffff81111561166c5761166b6124d1565b5b602083019150836020820283011115611688576116876124ef565b5b9250929050565b60008083601f8401126116a5576116a46124d6565b5b8235905067ffffffffffffffff8111156116c2576116c16124d1565b5b6020830191508360208202830111156116de576116dd6124ef565b5b9250929050565b6000813590506116f481612896565b92915050565b600081359050611709816128ad565b92915050565b60008083601f840112611725576117246124d6565b5b8235905067ffffffffffffffff811115611742576117416124d1565b5b60208301915083600182028301111561175e5761175d6124ef565b5b9250929050565b60008083601f84011261177b5761177a6124d6565b5b8235905067ffffffffffffffff811115611798576117976124d1565b5b6020830191508360018202830111156117b4576117b36124ef565b5b9250929050565b6000813590506117ca816128c4565b92915050565b6000602082840312156117e6576117e56124fe565b5b60006117f484828501611624565b91505092915050565b600080600060408486031215611816576118156124fe565b5b600061182486828701611624565b935050602084013567ffffffffffffffff811115611845576118446124f9565b5b61185186828701611639565b92509250509250925092565b600080600080600060608688031215611879576118786124fe565b5b600061188788828901611624565b955050602086013567ffffffffffffffff8111156118a8576118a76124f9565b5b6118b488828901611639565b9450945050604086013567ffffffffffffffff8111156118d7576118d66124f9565b5b6118e38882890161168f565b92509250509295509295909350565b6000806000806060858703121561190c5761190b6124fe565b5b600061191a87828801611624565b945050602061192b878288016116e5565b935050604085013567ffffffffffffffff81111561194c5761194b6124f9565b5b6119588782880161170f565b925092505092959194509250565b60008060006040848603121561197f5761197e6124fe565b5b600061198d86828701611624565b935050602084013567ffffffffffffffff8111156119ae576119ad6124f9565b5b6119ba86828701611765565b92509250509250925092565b6000602082840312156119dc576119db6124fe565b5b60006119ea848285016116e5565b91505092915050565b600060208284031215611a0957611a086124fe565b5b6000611a17848285016116fa565b91505092915050565b60008060208385031215611a3757611a366124fe565b5b600083013567ffffffffffffffff811115611a5557611a546124f9565b5b611a6185828601611765565b92509250509250929050565b600060208284031215611a8357611a826124fe565b5b6000611a91848285016117bb565b91505092915050565b611aa38161226f565b82525050565b611aba611ab58261226f565b612416565b82525050565b611ac981612281565b82525050565b611ad88161228d565b82525050565b611aef611aea8261228d565b612428565b82525050565b6000611b0183856121c2565b9350611b0e838584612359565b611b1783612503565b840190509392505050565b6000611b2d826121b7565b611b3781856121c2565b9350611b47818560208601612368565b611b5081612503565b840191505092915050565b6000611b68601c836121d3565b9150611b738261252e565b601c82019050919050565b6000611b8b6019836121c2565b9150611b9682612557565b602082019050919050565b6000611bae6026836121c2565b9150611bb982612580565b604082019050919050565b6000611bd16015836121c2565b9150611bdc826125cf565b602082019050919050565b6000611bf4602b836121c2565b9150611bff826125f8565b604082019050919050565b6000611c176019836121c2565b9150611c2282612647565b602082019050919050565b6000611c3a6018836121c2565b9150611c4582612670565b602082019050919050565b6000611c5d6018836121c2565b9150611c6882612699565b602082019050919050565b6000611c80601d836121c2565b9150611c8b826126c2565b602082019050919050565b6000611ca36015836121c2565b9150611cae826126eb565b602082019050919050565b6000611cc66020836121c2565b9150611cd182612714565b602082019050919050565b6000611ce9602d836121c2565b9150611cf48261273d565b604082019050919050565b6000611d0c6014836121c2565b9150611d178261278c565b602082019050919050565b6000611d2f601c836121c2565b9150611d3a826127b5565b602082019050919050565b6000611d526018836121c2565b9150611d5d826127de565b602082019050919050565b6000611d756017836121c2565b9150611d8082612807565b602082019050919050565b6000611d986022836121c2565b9150611da382612830565b604082019050919050565b611db7816122e3565b82525050565b611dc6816122ed565b82525050565b6000611dd88284611aa9565b60148201915081905092915050565b6000611df282611b5b565b9150611dfe8284611ade565b60208201915081905092915050565b6000602082019050611e226000830184611a9a565b92915050565b6000604082019050611e3d6000830185611a9a565b611e4a6020830184611a9a565b9392505050565b6000604082019050611e666000830186611a9a565b8181036020830152611e79818486611af5565b9050949350505050565b6000602082019050611e986000830184611ac0565b92915050565b6000604082019050611eb36000830185611acf565b611ec06020830184611a9a565b9392505050565b6000608082019050611edc6000830187611acf565b611ee96020830186611dbd565b611ef66040830185611acf565b611f036060830184611acf565b95945050505050565b60006020820190508181036000830152611f268184611b22565b905092915050565b60006020820190508181036000830152611f4781611b7e565b9050919050565b60006020820190508181036000830152611f6781611ba1565b9050919050565b60006020820190508181036000830152611f8781611bc4565b9050919050565b60006020820190508181036000830152611fa781611be7565b9050919050565b60006020820190508181036000830152611fc781611c0a565b9050919050565b60006020820190508181036000830152611fe781611c2d565b9050919050565b6000602082019050818103600083015261200781611c50565b9050919050565b6000602082019050818103600083015261202781611c73565b9050919050565b6000602082019050818103600083015261204781611c96565b9050919050565b6000602082019050818103600083015261206781611cb9565b9050919050565b6000602082019050818103600083015261208781611cdc565b9050919050565b600060208201905081810360008301526120a781611cff565b9050919050565b600060208201905081810360008301526120c781611d22565b9050919050565b600060208201905081810360008301526120e781611d45565b9050919050565b6000602082019050818103600083015261210781611d68565b9050919050565b6000602082019050818103600083015261212781611d8b565b9050919050565b60006020820190506121436000830184611dae565b92915050565b60008083356001602003843603038112612166576121656124e0565b5b80840192508235915067ffffffffffffffff821115612188576121876124db565b5b6020830192506001820236038313156121a4576121a36124f4565b5b509250929050565b600082905092915050565b600081519050919050565b600082825260208201905092915050565b600081905092915050565b600080858511156121f2576121f16124ea565b5b83861115612203576122026124e5565b5b6001850283019150848603905094509492505050565b6000612224826122e3565b915061222f836122e3565b9250827fffffffffffffffffffffffffffffffffffffffffffffffffffffffffffffffff0382111561226457612263612444565b5b828201905092915050565b600061227a826122c3565b9050919050565b60008115159050919050565b6000819050919050565b60007fffffffff0000000000000000000000000000000000000000000000000000000082169050919050565b600073ffffffffffffffffffffffffffffffffffffffff82169050919050565b6000819050919050565b600060ff82169050919050565b600061230683836121ac565b82612311813561228d565b925060208210156123515761234c7fffffffffffffffffffffffffffffffffffffffffffffffffffffffffffffffff83602003600802612521565b831692505b505092915050565b82818337600083830152505050565b60005b8381101561238657808201518184015260208101905061236b565b83811115612395576000848401525b50505050565b600060028204905060018216806123b357607f821691505b602082108114156123c7576123c6612473565b5b50919050565b60006123d8826122e3565b91507fffffffffffffffffffffffffffffffffffffffffffffffffffffffffffffffff82141561240b5761240a612444565b5b600182019050919050565b600061242182612432565b9050919050565b6000819050919050565b600061243d82612514565b9050919050565b7f4e487b7100000000000000000000000000000000000000000000000000000000600052601160045260246000fd5b7f4e487b7100000000000000000000000000000000000000000000000000000000600052602260045260246000fd5b7f4e487b7100000000000000000000000000000000000000000000000000000000600052603260045260246000fd5b600080fd5b600080fd5b600080fd5b600080fd5b600080fd5b600080fd5b600080fd5b600080fd5b600080fd5b600080fd5b6000601f19601f8301169050919050565b60008160601b9050919050565b600082821b905092915050565b7f19457468657265756d205369676e6564204d6573736167653a0a333200000000600082015250565b7f4f776e65723a2054534d20646f6573206e6f7420657869737400000000000000600082015250565b7f4f776e61626c653a206e6577206f776e657220697320746865207a65726f206160008201527f6464726573730000000000000000000000000000000000000000000000000000602082015250565b7f436869703a20696e76616c696420736967206076600000000000000000000000600082015250565b7f54534d3a206368697049647320616e64207369676e617475726573206c656e6760008201527f7468206d69736d61746368000000000000000000000000000000000000000000602082015250565b7f436869703a206368697020616c72656164792065786973747300000000000000600082015250565b7f436869703a206368697020646f65736e27742065786973740000000000000000600082015250565b7f54534d3a20696e646578206f7574206f6620626f756e64730000000000000000600082015250565b7f4f776e65723a2054534d20616c72656164792072656769737465726564000000600082015250565b7f436869703a20696e76616c696420736967206073600000000000000000000000600082015250565b7f4f776e61626c653a2063616c6c6572206973206e6f7420746865206f776e6572600082015250565b7f4f776e65723a206368697049647320616e64207369676e617475726573206c6560008201527f6e677468206d69736d6174636800000000000000000000000000000000000000602082015250565b7f436869703a20696e76616c6964207369676e6572000000000000000000000000600082015250565b7f436869703a2063686970207369676e617475726520696e76616c696400000000600082015250565b7f436869703a20696e76616c696420736967206c656e6774680000000000000000600082015250565b7f54534d3a2074736d20646f6573206e6f74206578697374000000000000000000600082015250565b7f54534d3a2063616c6c6572206973206e6f742054534d206f7220617070726f7660008201527f6564000000000000000000000000000000000000000000000000000000000000602082015250565b6128888161226f565b811461289357600080fd5b50565b61289f8161228d565b81146128aa57600080fd5b50565b6128b681612297565b81146128c157600080fd5b50565b6128cd816122e3565b81146128d857600080fd5b5056fea2646970667358221220bade09347903113b68932e82e18eb0533491c685e8c9f563c7c12566e39bf59864736f6c63430008050033",
  "linkReferences": {},
  "deployedLinkReferences": {}
}