{
  "_format": "hh-sol-artifact-1",
  "contractName": "ChipRegistry",
  "sourceName": "contracts/ChipRegistry.sol",
  "abi": [
    {
      "inputs": [
        {
          "internalType": "contract IManufacturerRegistry",
          "name": "_manufacturerRegistry",
          "type": "address"
        },
        {
          "internalType": "string[]",
          "name": "_gatewayUrls",
          "type": "string[]"
        },
        {
          "internalType": "uint256",
          "name": "_maxBlockWindow",
          "type": "uint256"
        },
        {
          "internalType": "uint256",
          "name": "_maxLockinPeriod",
          "type": "uint256"
        }
      ],
      "stateMutability": "nonpayable",
      "type": "constructor"
    },
    {
      "inputs": [
        {
          "internalType": "address",
          "name": "sender",
          "type": "address"
        },
        {
          "internalType": "string[]",
          "name": "urls",
          "type": "string[]"
        },
        {
          "internalType": "bytes",
          "name": "callData",
          "type": "bytes"
        },
        {
          "internalType": "bytes4",
          "name": "callbackFunction",
          "type": "bytes4"
        },
        {
          "internalType": "bytes",
          "name": "extraData",
          "type": "bytes"
        }
      ],
      "name": "OffchainLookup",
      "type": "error"
    },
    {
      "anonymous": false,
      "inputs": [
        {
          "indexed": true,
          "internalType": "address",
          "name": "owner",
          "type": "address"
        },
        {
          "indexed": true,
          "internalType": "address",
          "name": "approved",
          "type": "address"
        },
        {
          "indexed": true,
          "internalType": "uint256",
          "name": "tokenId",
          "type": "uint256"
        }
      ],
      "name": "Approval",
      "type": "event"
    },
    {
      "anonymous": false,
      "inputs": [
        {
          "indexed": true,
          "internalType": "address",
          "name": "owner",
          "type": "address"
        },
        {
          "indexed": true,
          "internalType": "address",
          "name": "operator",
          "type": "address"
        },
        {
          "indexed": false,
          "internalType": "bool",
          "name": "approved",
          "type": "bool"
        }
      ],
      "name": "ApprovalForAll",
      "type": "event"
    },
    {
      "anonymous": false,
      "inputs": [
        {
          "indexed": true,
          "internalType": "address",
          "name": "chipId",
          "type": "address"
        },
        {
          "indexed": false,
          "internalType": "uint256",
          "name": "tokenId",
          "type": "uint256"
        },
        {
          "indexed": true,
          "internalType": "address",
          "name": "owner",
          "type": "address"
        },
        {
          "indexed": false,
          "internalType": "bytes32",
          "name": "serviceId",
          "type": "bytes32"
        },
        {
          "indexed": false,
          "internalType": "bytes32",
          "name": "ersNode",
          "type": "bytes32"
        },
        {
          "indexed": true,
          "internalType": "bytes32",
          "name": "enrollmentId",
          "type": "bytes32"
        },
        {
          "indexed": false,
          "internalType": "string",
          "name": "tokenUri",
          "type": "string"
        }
      ],
      "name": "ChipClaimed",
      "type": "event"
    },
    {
      "anonymous": false,
      "inputs": [
        {
          "indexed": false,
          "internalType": "string",
          "name": "gatewayUrl",
          "type": "string"
        }
      ],
      "name": "GatewayURLAdded",
      "type": "event"
    },
    {
      "anonymous": false,
      "inputs": [
        {
          "indexed": false,
          "internalType": "string",
          "name": "gatewayUrl",
          "type": "string"
        }
      ],
      "name": "GatewayURLRemoved",
      "type": "event"
    },
    {
      "anonymous": false,
      "inputs": [
        {
          "indexed": false,
          "internalType": "uint256",
          "name": "maxLockinPeriod",
          "type": "uint256"
        }
      ],
      "name": "MaxLockinPeriodUpdated",
      "type": "event"
    },
    {
      "anonymous": false,
      "inputs": [
        {
          "indexed": true,
          "internalType": "address",
          "name": "previousOwner",
          "type": "address"
        },
        {
          "indexed": true,
          "internalType": "address",
          "name": "newOwner",
          "type": "address"
        }
      ],
      "name": "OwnershipTransferred",
      "type": "event"
    },
    {
      "anonymous": false,
      "inputs": [
        {
          "indexed": true,
          "internalType": "uint256",
          "name": "tokenId",
          "type": "uint256"
        },
        {
          "indexed": true,
          "internalType": "address",
          "name": "oldChipAddress",
          "type": "address"
        },
        {
          "indexed": true,
          "internalType": "address",
          "name": "newChipAddress",
          "type": "address"
        }
      ],
      "name": "PBTChipRemapping",
      "type": "event"
    },
    {
      "anonymous": false,
      "inputs": [
        {
          "indexed": true,
          "internalType": "uint256",
          "name": "tokenId",
          "type": "uint256"
        },
        {
          "indexed": true,
          "internalType": "address",
          "name": "chipAddress",
          "type": "address"
        }
      ],
      "name": "PBTMint",
      "type": "event"
    },
    {
      "anonymous": false,
      "inputs": [
        {
          "indexed": true,
          "internalType": "address",
          "name": "tsmRegistrar",
          "type": "address"
        },
        {
          "indexed": true,
          "internalType": "address",
          "name": "projectRegistrar",
          "type": "address"
        },
        {
          "indexed": true,
          "internalType": "address",
          "name": "transferPolicy",
          "type": "address"
        },
        {
          "indexed": false,
          "internalType": "address",
          "name": "projectPublicKey",
          "type": "address"
        },
        {
          "indexed": false,
          "internalType": "bytes32",
          "name": "merkleRoot",
          "type": "bytes32"
        },
        {
          "indexed": false,
          "internalType": "string",
          "name": "projectClaimDataUri",
          "type": "string"
        }
      ],
      "name": "ProjectEnrollmentAdded",
      "type": "event"
    },
    {
      "anonymous": false,
      "inputs": [
        {
          "indexed": true,
          "internalType": "address",
          "name": "projectRegistrar",
          "type": "address"
        },
        {
          "indexed": false,
          "internalType": "bytes32",
          "name": "merkleRoot",
          "type": "bytes32"
        },
        {
          "indexed": false,
          "internalType": "string",
          "name": "projectClaimDataUri",
          "type": "string"
        }
      ],
      "name": "ProjectMerkleRootUpdated",
      "type": "event"
    },
    {
      "anonymous": false,
      "inputs": [
        {
          "indexed": false,
          "internalType": "address",
          "name": "ers",
          "type": "address"
        },
        {
          "indexed": false,
          "internalType": "address",
          "name": "servicesRegistry",
          "type": "address"
        },
        {
          "indexed": false,
          "internalType": "address",
          "name": "tsmRegistry",
          "type": "address"
        }
      ],
      "name": "RegistryInitialized",
      "type": "event"
    },
    {
      "anonymous": false,
      "inputs": [
        {
          "indexed": true,
          "internalType": "address",
          "name": "from",
          "type": "address"
        },
        {
          "indexed": true,
          "internalType": "address",
          "name": "to",
          "type": "address"
        },
        {
          "indexed": true,
          "internalType": "uint256",
          "name": "tokenId",
          "type": "uint256"
        }
      ],
      "name": "Transfer",
      "type": "event"
    },
    {
      "anonymous": false,
      "inputs": [
        {
          "indexed": true,
          "internalType": "address",
          "name": "chipId",
          "type": "address"
        },
        {
          "indexed": false,
          "internalType": "address",
          "name": "transferPolicy",
          "type": "address"
        }
      ],
      "name": "TransferPolicyChanged",
      "type": "event"
    },
    {
      "inputs": [],
      "name": "CONTENT_APP_RECORDTYPE",
      "outputs": [
        {
          "internalType": "bytes32",
          "name": "",
          "type": "bytes32"
        }
      ],
      "stateMutability": "view",
      "type": "function"
    },
    {
      "inputs": [],
      "name": "URI_RECORDTYPE",
      "outputs": [
        {
          "internalType": "bytes32",
          "name": "",
          "type": "bytes32"
        }
      ],
      "stateMutability": "view",
      "type": "function"
    },
    {
      "inputs": [
        {
          "internalType": "string",
          "name": "_gatewayUrl",
          "type": "string"
        }
      ],
      "name": "addGatewayURL",
      "outputs": [],
      "stateMutability": "nonpayable",
      "type": "function"
    },
    {
      "inputs": [
        {
          "internalType": "contract IProjectRegistrar",
          "name": "_projectRegistrar",
          "type": "address"
        },
        {
          "internalType": "address",
          "name": "_projectPublicKey",
          "type": "address"
        },
        {
          "internalType": "contract ITransferPolicy",
          "name": "_transferPolicy",
          "type": "address"
        },
        {
          "internalType": "bytes32",
          "name": "_merkleRoot",
          "type": "bytes32"
        },
        {
          "internalType": "bytes",
          "name": "_ownershipProof",
          "type": "bytes"
        },
        {
          "internalType": "string",
          "name": "_projectClaimDataUri",
          "type": "string"
        }
      ],
      "name": "addProjectEnrollment",
      "outputs": [],
      "stateMutability": "nonpayable",
      "type": "function"
    },
    {
      "inputs": [
        {
          "internalType": "address",
          "name": "",
          "type": "address"
        },
        {
          "internalType": "uint256",
          "name": "",
          "type": "uint256"
        }
      ],
      "name": "approve",
      "outputs": [],
      "stateMutability": "nonpayable",
      "type": "function"
    },
    {
      "inputs": [
        {
          "internalType": "address",
          "name": "owner",
          "type": "address"
        }
      ],
      "name": "balanceOf",
      "outputs": [
        {
          "internalType": "uint256",
          "name": "",
          "type": "uint256"
        }
      ],
      "stateMutability": "view",
      "type": "function"
    },
    {
      "inputs": [
        {
          "internalType": "address",
          "name": "",
          "type": "address"
        }
      ],
      "name": "chipTable",
      "outputs": [
        {
          "internalType": "uint256",
          "name": "tokenId",
          "type": "uint256"
        },
        {
          "internalType": "contract ITransferPolicy",
          "name": "transferPolicy",
          "type": "address"
        },
        {
          "internalType": "string",
          "name": "tokenUri",
          "type": "string"
        },
        {
          "internalType": "bytes",
          "name": "tokenData",
          "type": "bytes"
        }
      ],
      "stateMutability": "view",
      "type": "function"
    },
    {
      "inputs": [
        {
          "internalType": "address",
          "name": "_chipId",
          "type": "address"
        },
        {
          "components": [
            {
              "internalType": "address",
              "name": "owner",
              "type": "address"
            },
            {
              "internalType": "bytes32",
              "name": "ersNode",
              "type": "bytes32"
            },
            {
              "components": [
                {
                  "internalType": "uint256",
                  "name": "tsmIndex",
                  "type": "uint256"
                },
                {
                  "internalType": "bytes32",
                  "name": "serviceId",
                  "type": "bytes32"
                },
                {
                  "internalType": "uint256",
                  "name": "lockinPeriod",
                  "type": "uint256"
                },
                {
                  "internalType": "string",
                  "name": "tokenUri",
                  "type": "string"
                },
                {
                  "internalType": "bytes32[]",
                  "name": "tsmProof",
                  "type": "bytes32[]"
                }
              ],
              "internalType": "struct IChipRegistry.TSMMerkleInfo",
              "name": "tsmMerkleInfo",
              "type": "tuple"
            }
          ],
          "internalType": "struct IChipRegistry.ChipClaim",
          "name": "_chipClaim",
          "type": "tuple"
        },
        {
          "components": [
            {
              "internalType": "bytes32",
              "name": "enrollmentId",
              "type": "bytes32"
            },
            {
              "internalType": "uint256",
              "name": "mIndex",
              "type": "uint256"
            },
            {
              "internalType": "bytes32[]",
              "name": "manufacturerProof",
              "type": "bytes32[]"
            }
          ],
          "internalType": "struct IChipRegistry.ManufacturerValidation",
          "name": "_manufacturerValidation",
          "type": "tuple"
        },
        {
          "internalType": "bytes",
          "name": "_tsmCertificate",
          "type": "bytes"
        },
        {
          "internalType": "bytes",
          "name": "_custodyProof",
          "type": "bytes"
        }
      ],
      "name": "claimChip",
      "outputs": [],
      "stateMutability": "nonpayable",
      "type": "function"
    },
    {
      "inputs": [],
      "name": "ers",
      "outputs": [
        {
          "internalType": "contract IERS",
          "name": "",
          "type": "address"
        }
      ],
      "stateMutability": "view",
      "type": "function"
    },
    {
      "inputs": [
        {
          "internalType": "uint256",
          "name": "tokenId",
          "type": "uint256"
        }
      ],
      "name": "getApproved",
      "outputs": [
        {
          "internalType": "address",
          "name": "",
          "type": "address"
        }
      ],
      "stateMutability": "view",
      "type": "function"
    },
    {
      "inputs": [],
      "name": "getGatewayUrls",
      "outputs": [
        {
          "internalType": "string[]",
          "name": "",
          "type": "string[]"
        }
      ],
      "stateMutability": "view",
      "type": "function"
    },
    {
      "inputs": [
        {
          "internalType": "contract IERS",
          "name": "_ers",
          "type": "address"
        },
        {
          "internalType": "contract IServicesRegistry",
          "name": "_servicesRegistry",
          "type": "address"
        },
        {
          "internalType": "contract ITSMRegistry",
          "name": "_tsmRegistry",
          "type": "address"
        }
      ],
      "name": "initialize",
      "outputs": [],
      "stateMutability": "nonpayable",
      "type": "function"
    },
    {
      "inputs": [],
      "name": "initialized",
      "outputs": [
        {
          "internalType": "bool",
          "name": "",
          "type": "bool"
        }
      ],
      "stateMutability": "view",
      "type": "function"
    },
    {
      "inputs": [
        {
          "internalType": "address",
          "name": "",
          "type": "address"
        },
        {
          "internalType": "address",
          "name": "",
          "type": "address"
        }
      ],
      "name": "isApprovedForAll",
      "outputs": [
        {
          "internalType": "bool",
          "name": "",
          "type": "bool"
        }
      ],
      "stateMutability": "view",
      "type": "function"
    },
    {
      "inputs": [
        {
          "internalType": "address",
          "name": "_chipId",
          "type": "address"
        },
        {
          "internalType": "bytes",
          "name": "_payload",
          "type": "bytes"
        },
        {
          "internalType": "bytes",
          "name": "_signature",
          "type": "bytes"
        }
      ],
      "name": "isChipSignatureForToken",
      "outputs": [
        {
          "internalType": "bool",
          "name": "",
          "type": "bool"
        }
      ],
      "stateMutability": "view",
      "type": "function"
    },
    {
      "inputs": [],
      "name": "manufacturerRegistry",
      "outputs": [
        {
          "internalType": "contract IManufacturerRegistry",
          "name": "",
          "type": "address"
        }
      ],
      "stateMutability": "view",
      "type": "function"
    },
    {
      "inputs": [],
      "name": "maxBlockWindow",
      "outputs": [
        {
          "internalType": "uint256",
          "name": "",
          "type": "uint256"
        }
      ],
      "stateMutability": "view",
      "type": "function"
    },
    {
      "inputs": [],
      "name": "maxLockinPeriod",
      "outputs": [
        {
          "internalType": "uint256",
          "name": "",
          "type": "uint256"
        }
      ],
      "stateMutability": "view",
      "type": "function"
    },
    {
      "inputs": [],
      "name": "name",
      "outputs": [
        {
          "internalType": "string",
          "name": "",
          "type": "string"
        }
      ],
      "stateMutability": "view",
      "type": "function"
    },
    {
      "inputs": [],
      "name": "owner",
      "outputs": [
        {
          "internalType": "address",
          "name": "",
          "type": "address"
        }
      ],
      "stateMutability": "view",
      "type": "function"
    },
    {
      "inputs": [
        {
          "internalType": "address",
          "name": "_chipId",
          "type": "address"
        }
      ],
      "name": "ownerOf",
      "outputs": [
        {
          "internalType": "address",
          "name": "",
          "type": "address"
        }
      ],
      "stateMutability": "view",
      "type": "function"
    },
    {
      "inputs": [
        {
          "internalType": "uint256",
          "name": "tokenId",
          "type": "uint256"
        }
      ],
      "name": "ownerOf",
      "outputs": [
        {
          "internalType": "address",
          "name": "",
          "type": "address"
        }
      ],
      "stateMutability": "view",
      "type": "function"
    },
    {
      "inputs": [
        {
          "internalType": "contract IProjectRegistrar",
          "name": "",
          "type": "address"
        }
      ],
      "name": "projectEnrollments",
      "outputs": [
        {
          "internalType": "bytes32",
          "name": "merkleRoot",
          "type": "bytes32"
        },
        {
          "internalType": "address",
          "name": "projectPublicKey",
          "type": "address"
        },
        {
          "internalType": "contract ITransferPolicy",
          "name": "transferPolicy",
          "type": "address"
        },
        {
          "internalType": "uint256",
          "name": "creationTimestamp",
          "type": "uint256"
        },
        {
          "internalType": "bool",
          "name": "claimsStarted",
          "type": "bool"
        },
        {
          "internalType": "string",
          "name": "projectClaimDataUri",
          "type": "string"
        }
      ],
      "stateMutability": "view",
      "type": "function"
    },
    {
      "inputs": [
        {
          "internalType": "string",
          "name": "_gatewayUrl",
          "type": "string"
        }
      ],
      "name": "removeGatewayURL",
      "outputs": [],
      "stateMutability": "nonpayable",
      "type": "function"
    },
    {
      "inputs": [],
      "name": "renounceOwnership",
      "outputs": [],
      "stateMutability": "nonpayable",
      "type": "function"
    },
    {
      "inputs": [
        {
          "internalType": "address",
          "name": "_chipId",
          "type": "address"
        }
      ],
      "name": "resolveChipId",
      "outputs": [
        {
          "components": [
            {
              "internalType": "bytes32",
              "name": "recordType",
              "type": "bytes32"
            },
            {
              "internalType": "bytes",
              "name": "content",
              "type": "bytes"
            }
          ],
          "internalType": "struct IServicesRegistry.Record[]",
          "name": "",
          "type": "tuple[]"
        }
      ],
      "stateMutability": "view",
      "type": "function"
    },
    {
      "inputs": [
        {
          "internalType": "bytes",
          "name": "_response",
          "type": "bytes"
        },
        {
          "internalType": "bytes",
          "name": "_extraData",
          "type": "bytes"
        }
      ],
      "name": "resolveUnclaimedChip",
      "outputs": [
        {
          "components": [
            {
              "internalType": "bytes32",
              "name": "recordType",
              "type": "bytes32"
            },
            {
              "internalType": "bytes",
              "name": "content",
              "type": "bytes"
            }
          ],
          "internalType": "struct IServicesRegistry.Record[]",
          "name": "",
          "type": "tuple[]"
        }
      ],
      "stateMutability": "view",
      "type": "function"
    },
    {
      "inputs": [
        {
          "internalType": "address",
          "name": "",
          "type": "address"
        },
        {
          "internalType": "address",
          "name": "",
          "type": "address"
        },
        {
          "internalType": "uint256",
          "name": "",
          "type": "uint256"
        }
      ],
      "name": "safeTransferFrom",
      "outputs": [],
      "stateMutability": "nonpayable",
      "type": "function"
    },
    {
      "inputs": [
        {
          "internalType": "address",
          "name": "",
          "type": "address"
        },
        {
          "internalType": "address",
          "name": "",
          "type": "address"
        },
        {
          "internalType": "uint256",
          "name": "",
          "type": "uint256"
        },
        {
          "internalType": "bytes",
          "name": "",
          "type": "bytes"
        }
      ],
      "name": "safeTransferFrom",
      "outputs": [],
      "stateMutability": "nonpayable",
      "type": "function"
    },
    {
      "inputs": [],
      "name": "servicesRegistry",
      "outputs": [
        {
          "internalType": "contract IServicesRegistry",
          "name": "",
          "type": "address"
        }
      ],
      "stateMutability": "view",
      "type": "function"
    },
    {
      "inputs": [
        {
          "internalType": "address",
          "name": "",
          "type": "address"
        },
        {
          "internalType": "bool",
          "name": "",
          "type": "bool"
        }
      ],
      "name": "setApprovalForAll",
      "outputs": [],
      "stateMutability": "nonpayable",
      "type": "function"
    },
    {
      "inputs": [
        {
          "internalType": "address",
          "name": "_chipId",
          "type": "address"
        },
        {
          "internalType": "address",
          "name": "_newOwner",
          "type": "address"
        },
        {
          "internalType": "uint256",
          "name": "_commitBlock",
          "type": "uint256"
        },
        {
          "internalType": "bytes",
          "name": "_signature",
          "type": "bytes"
        }
      ],
      "name": "setOwner",
      "outputs": [],
      "stateMutability": "nonpayable",
      "type": "function"
    },
    {
      "inputs": [
        {
          "internalType": "address",
          "name": "_chipId",
          "type": "address"
        },
        {
          "internalType": "contract ITransferPolicy",
          "name": "_newPolicy",
          "type": "address"
        },
        {
          "internalType": "uint256",
          "name": "_commitBlock",
          "type": "uint256"
        },
        {
          "internalType": "bytes",
          "name": "_signature",
          "type": "bytes"
        }
      ],
      "name": "setTransferPolicy",
      "outputs": [],
      "stateMutability": "nonpayable",
      "type": "function"
    },
    {
      "inputs": [
        {
          "internalType": "bytes4",
          "name": "_interfaceId",
          "type": "bytes4"
        }
      ],
      "name": "supportsInterface",
      "outputs": [
        {
          "internalType": "bool",
          "name": "",
          "type": "bool"
        }
      ],
      "stateMutability": "view",
      "type": "function"
    },
    {
      "inputs": [],
      "name": "symbol",
      "outputs": [
        {
          "internalType": "string",
          "name": "",
          "type": "string"
        }
      ],
      "stateMutability": "view",
      "type": "function"
    },
    {
      "inputs": [],
      "name": "tokenIdCounter",
      "outputs": [
        {
          "internalType": "uint256",
          "name": "",
          "type": "uint256"
        }
      ],
      "stateMutability": "view",
      "type": "function"
    },
    {
      "inputs": [
        {
          "internalType": "address",
          "name": "_chipId",
          "type": "address"
        }
      ],
      "name": "tokenIdFor",
      "outputs": [
        {
          "internalType": "uint256",
          "name": "tokenId",
          "type": "uint256"
        }
      ],
      "stateMutability": "view",
      "type": "function"
    },
    {
      "inputs": [
        {
          "internalType": "uint256",
          "name": "",
          "type": "uint256"
        }
      ],
      "name": "tokenIdToChipId",
      "outputs": [
        {
          "internalType": "address",
          "name": "",
          "type": "address"
        }
      ],
      "stateMutability": "view",
      "type": "function"
    },
    {
      "inputs": [
        {
          "internalType": "address",
          "name": "_chipId",
          "type": "address"
        }
      ],
      "name": "tokenURI",
      "outputs": [
        {
          "internalType": "string",
          "name": "",
          "type": "string"
        }
      ],
      "stateMutability": "view",
      "type": "function"
    },
    {
      "inputs": [
        {
          "internalType": "uint256",
          "name": "_tokenId",
          "type": "uint256"
        }
      ],
      "name": "tokenURI",
      "outputs": [
        {
          "internalType": "string",
          "name": "",
          "type": "string"
        }
      ],
      "stateMutability": "view",
      "type": "function"
    },
    {
      "inputs": [
        {
          "internalType": "address",
          "name": "",
          "type": "address"
        },
        {
          "internalType": "address",
          "name": "",
          "type": "address"
        },
        {
          "internalType": "uint256",
          "name": "",
          "type": "uint256"
        }
      ],
      "name": "transferFrom",
      "outputs": [],
      "stateMutability": "nonpayable",
      "type": "function"
    },
    {
      "inputs": [
        {
          "internalType": "address",
          "name": "newOwner",
          "type": "address"
        }
      ],
      "name": "transferOwnership",
      "outputs": [],
      "stateMutability": "nonpayable",
      "type": "function"
    },
    {
      "inputs": [
        {
          "internalType": "address",
          "name": "_chipId",
          "type": "address"
        },
        {
          "internalType": "address",
          "name": "_to",
          "type": "address"
        },
        {
          "internalType": "bytes",
          "name": "_payload",
          "type": "bytes"
        },
        {
          "internalType": "bytes",
          "name": "_signature",
          "type": "bytes"
        },
        {
          "internalType": "bool",
          "name": "_useSafeTransfer",
          "type": "bool"
        }
      ],
      "name": "transferTokenWithChip",
      "outputs": [],
      "stateMutability": "nonpayable",
      "type": "function"
    },
    {
      "inputs": [],
      "name": "tsmRegistry",
      "outputs": [
        {
          "internalType": "contract ITSMRegistry",
          "name": "",
          "type": "address"
        }
      ],
      "stateMutability": "view",
      "type": "function"
    },
    {
      "inputs": [
        {
          "internalType": "uint256",
          "name": "_maxLockinPeriod",
          "type": "uint256"
        }
      ],
      "name": "updateMaxLockinPeriod",
      "outputs": [],
      "stateMutability": "nonpayable",
      "type": "function"
    },
    {
      "inputs": [
        {
          "internalType": "contract IProjectRegistrar",
          "name": "_projectRegistrar",
          "type": "address"
        },
        {
          "internalType": "bytes32",
          "name": "_merkleRoot",
          "type": "bytes32"
        },
        {
          "internalType": "string",
          "name": "_projectClaimDataUri",
          "type": "string"
        }
      ],
      "name": "updateProjectMerkleRoot",
      "outputs": [],
      "stateMutability": "nonpayable",
      "type": "function"
    }
  ],
  "bytecode": "0x60c06040523480156200001157600080fd5b5060405162005a5338038062005a53833981016040819052620000349162000240565b60408051808201825260038082526245525360e81b6020808401829052845180860190955291845290830152908382828181600062000074838262000441565b50600162000083828262000441565b50506001600855505050608052506200009e905033620000ce565b6001600160a01b03841660a0528251620000c090600e90602086019062000120565b50600f55506200050d915050565b600980546001600160a01b038381166001600160a01b0319831681179093556040519116919082907f8be0079c531659141344cd1fd0a4f28419497f9722a3daafe3b4186f6b6457e090600090a35050565b8280548282559060005260206000209081019282156200016b579160200282015b828111156200016b57825182906200015a908262000441565b509160200191906001019062000141565b50620001799291506200017d565b5090565b80821115620001795760006200019482826200019e565b506001016200017d565b508054620001ac90620003b2565b6000825580601f10620001bd575050565b601f016020900490600052602060002090810190620001dd9190620001e0565b50565b5b80821115620001795760008155600101620001e1565b634e487b7160e01b600052604160045260246000fd5b604051601f8201601f191681016001600160401b0381118282101715620002385762000238620001f7565b604052919050565b600080600080608085870312156200025757600080fd5b84516001600160a01b03811681146200026f57600080fd5b602086810151919550906001600160401b03808211156200028f57600080fd5b818801915088601f830112620002a457600080fd5b815181811115620002b957620002b9620001f7565b8060051b620002ca8582016200020d565b918252838101850191858101908c841115620002e557600080fd5b86860192505b8383101562000396578251858111156200030457600080fd5b8601603f81018e136200031657600080fd5b87810151868111156200032d576200032d620001f7565b62000341601f8201601f19168a016200020d565b8181528f6040838501011115620003585760008081fd5b60005b828110156200037957838101604001518282018c01528a016200035b565b5060009181018a01919091528352509186019190860190620002eb565b60408c01516060909c01519a9d909c5098505050505050505050565b600181811c90821680620003c757607f821691505b602082108103620003e857634e487b7160e01b600052602260045260246000fd5b50919050565b601f8211156200043c57600081815260208120601f850160051c81016020861015620004175750805b601f850160051c820191505b81811015620004385782815560010162000423565b5050505b505050565b81516001600160401b038111156200045d576200045d620001f7565b62000475816200046e8454620003b2565b84620003ee565b602080601f831160018114620004ad5760008415620004945750858301515b600019600386901b1c1916600185901b17855562000438565b600085815260208120601f198616915b82811015620004de57888601518255948401946001909101908401620004bd565b5085821015620004fd5787850151600019600388901b60f8161c191681555b5050505050600190811b01905550565b60805160a0516155046200054f6000396000818161033201528181611ac5015261257101526000818161041201528181611fb4015261280c01526155046000f3fe608060405234801561001057600080fd5b506004361061028a5760003560e01c80637d0786ff1161015c578063b27bae5c116100ce578063ce8cff8011610087578063ce8cff80146105f9578063d6aaa50514610622578063d6de1f4f14610635578063d8a3ec7314610648578063e985e9c514610651578063f2fde38b1461066757600080fd5b8063b27bae5c1461057a578063b88d4fde1461059f578063b9e5d005146105ad578063c0c53b8b146105c0578063c14b4d3c146105d3578063c87b56dd146105e657600080fd5b806398bdf6f51161012057806398bdf6f5146105115780639b96fe8c1461051a578063a22cb4651461052d578063ab81b96914610540578063af48924e14610553578063b23f2e561461056757600080fd5b80637d0786ff146104b057806385f3ce3d146104d35780638da5cb5b146104e557806393702f33146104f657806395d89b411461050957600080fd5b80634048f20b1161020057806366afc9c1116101b957806366afc9c11461044757806370a082311461045a578063715018a61461046d5780637457bdea146104755780637a7b3afe146104885780637ac9d7381461049d57600080fd5b80634048f20b146103b457806342842e0e146103d45780634504a5ab146103e757806348aeaa11146103fa5780635218574c1461040d5780636352211e1461043457600080fd5b80630fd60612116102525780630fd606121461032d57806314afd79e14610354578063158ef93e146103675780631d0c1dfe1461037b57806323b872dd1461038e5780633ee0189b146103a157600080fd5b806301ffc9a71461028f57806306fdde03146102b7578063081812fc146102cc57806308daee36146102f7578063095ea7b314610318575b600080fd5b6102a261029d366004613c8d565b61067a565b60405190151581526020015b60405180910390f35b6102bf6106a5565b6040516102ae9190613cfa565b6102df6102da366004613d0d565b610737565b6040516001600160a01b0390911681526020016102ae565b61030a610305366004613d3b565b61077c565b6040519081526020016102ae565b61032b610326366004613d58565b6107ba565b005b6102df7f000000000000000000000000000000000000000000000000000000000000000081565b6102df610362366004613d3b565b61080c565b600c546102a290600160a01b900460ff1681565b61032b610389366004613f97565b61081a565b61032b61039c36600461405e565b610d9d565b61032b6103af366004613d0d565b610df4565b6103c76103c2366004613d3b565b610e80565b6040516102ae919061409f565b61032b6103e236600461405e565b610f8e565b61032b6103f5366004614154565b610fe9565b600c546102df906001600160a01b031681565b61030a7f000000000000000000000000000000000000000000000000000000000000000081565b6102df610442366004613d0d565b611007565b600b546102df906001600160a01b031681565b61030a610468366004613d3b565b61103c565b61032b6110c2565b61032b6104833660046141c6565b6110d6565b6104906112a5565b6040516102ae9190614221565b600a546102df906001600160a01b031681565b6104c36104be366004613d3b565b61137e565b6040516102ae9493929190614283565b61030a67746f6b656e55726960c01b81565b6009546001600160a01b03166102df565b6102bf610504366004613d3b565b6114c1565b6102bf6114fb565b61030a60085481565b6102a26105283660046142bf565b61150a565b61032b61053b36600461433e565b611590565b61032b61054e366004614377565b6115ec565b61030a690636f6e74656e744170760b41b81565b6103c76105753660046143ab565b61175e565b61058d610588366004613d3b565b611b6d565b6040516102ae9695949392919061440a565b61032b6103e2366004614457565b61032b6105bb3660046144c2565b611c3e565b61032b6105ce36600461456a565b611c68565b61032b6105e1366004614377565b611d58565b6102bf6105f4366004613d0d565b611eeb565b6102df610607366004613d0d565b6007602052600090815260409020546001600160a01b031681565b61032b610630366004614154565b611f36565b61032b6106433660046145b5565b6120a6565b61030a600f5481565b6102a261065f366004614665565b600092915050565b61032b610675366004613d3b565b6123f1565b60006001600160e01b03198216633e06172160e01b148061069f575061069f8261246a565b92915050565b6060600080546106b490614693565b80601f01602080910402602001604051908101604052809291908181526020018280546106e090614693565b801561072d5780601f106107025761010080835404028352916020019161072d565b820191906000526020600020905b81548152906001019060200180831161071057829003601f168201915b5050505050905090565b6000818152600260205260408120546001600160a01b03166107745760405162461bcd60e51b815260040161076b906146c7565b60405180910390fd5b506000919050565b6001600160a01b038116600090815260066020526040812054908190036107b55760405162461bcd60e51b815260040161076b906146fe565b919050565b60405162461bcd60e51b815260206004820152602160248201527f455243373231207075626c696320617070726f7665206e6f7420616c6c6f77656044820152601960fa1b606482015260840161076b565b600061069f6104428361077c565b336000908152600d60209081526040808320815160c0810183528154815260018201546001600160a01b039081169482019490945260028201549093169183019190915260038101546060830152600481015460ff161515608083015260058101805460a08401919061088c90614693565b80601f01602080910402602001604051908101604052809291908181526020018280546108b890614693565b80156109055780601f106108da57610100808354040283529160200191610905565b820191906000526020600020905b8154815290600101906020018083116108e857829003601f168201915b505050919092525050506001600160a01b0387166000908152600660205260409020549091501561096f5760405162461bcd60e51b815260206004820152601460248201527310da1a5c08185b1c9958591e4818db185a5b595960621b604482015260640161076b565b600061097e6020870187613d3b565b6001600160a01b0316036109c95760405162461bcd60e51b815260206004820152601260248201527124b73b30b634b21031b434b81037bbb732b960711b604482015260640161076b565b60208101516001600160a01b0316610a1a5760405162461bcd60e51b8152602060048201526014602482015273141c9bda9958dd081b9bdd08195b9c9bdb1b195960621b604482015260640161076b565b600a546001600160a01b031663a66dd8a3602087018035908990610a3e908a613d3b565b6040516001600160e01b031960e086901b16815260048101939093526001600160a01b039182166024840152166044820152606401602060405180830381865afa158015610a90573d6000803e3d6000fd5b505050506040513d601f19601f82011682018060405250810190610ab4919061472c565b610b005760405162461bcd60e51b815260206004820152601960248201527f496e636f6e73697374656e7420737461746520696e2045525300000000000000604482015260640161076b565b610b1086826020015185856124ba565b610b3386610b216040880188614749565b610b2a90614769565b865184516124ed565b610b3d868561254b565b6000610b4c6040870187614749565b60400135600f548360600151610b629190614822565b11610b7e57600f548260600151610b799190614822565b610b90565b610b8b6040870187614749565b604001355b600b549091506001600160a01b0316638025c93b88610bb260408a018a614749565b6040516001600160e01b031960e085901b1681526001600160a01b03909216600483015260200135602482015260448101849052606401600060405180830381600087803b158015610c0357600080fd5b505af1158015610c17573d6000803e3d6000fd5b50505050600060405180608001604052806000815260200184604001516001600160a01b03168152602001888060400190610c529190614749565b610c60906060810190614835565b8080601f01602080910402602001604051908101604052809392919081815260200183838082843760009201919091525050509082525087516040805160208c8101358282015281830193909352815180820383018152606090910190915291015290506000610cdd610cd660208a018a613d3b565b8a84612650565b90508360800151610d0657336000908152600d60205260409020600401805460ff191660011790555b8651610d1560208a018a613d3b565b6001600160a01b03908116908b167f6afd7ab65c24ca9975fc1091f6ca68d08c96d9ae5e4cab2a4356efd2501f84e084610d5260408e018e614749565b602001358d602001358e8060400190610d6b9190614749565b610d79906060810190614835565b604051610d8a9594939291906148a4565b60405180910390a4505050505050505050565b60405162461bcd60e51b815260206004820152602660248201527f455243373231207075626c6963207472616e7366657246726f6d206e6f7420616044820152651b1b1bddd95960d21b606482015260840161076b565b610dfc612734565b60008111610e445760405162461bcd60e51b8152602060048201526015602482015274125b9d985b1a59081b1bd8dada5b881c195c9a5bd9605a1b604482015260640161076b565b600f8190556040518181527f99c59d1a41be6b526e0c7b8231e4cf68d496b8250e585c52e1e7b6a5b9726a77906020015b60405180910390a150565b6060610ea3826001600160a01b0316600090815260066020526040902054151590565b15610f1a57600b54604051634417838960e11b81526001600160a01b0384811660048301529091169063882f071290602401600060405180830381865afa158015610ef2573d6000803e3d6000fd5b505050506040513d6000823e601f3d908101601f1916820160405261069f919081019061490f565b6040516001600160601b0319606084901b1660208201523090600e9060340160408051601f198184030181528282526001600160a01b03871660208401529163591f972b60e11b910160408051601f1981840301815290829052630556f18360e41b825261076b95949392916004016149fd565b60405162461bcd60e51b815260206004820152602a60248201527f455243373231207075626c696320736166655472616e7366657246726f6d206e6044820152691bdd08185b1b1bddd95960b21b606482015260840161076b565b610ff6858585858561278e565b6110008585612859565b5050505050565b6000818152600260205260408120546001600160a01b03168061069f5760405162461bcd60e51b815260040161076b906146c7565b60006001600160a01b0382166110a65760405162461bcd60e51b815260206004820152602960248201527f4552433732313a2061646472657373207a65726f206973206e6f7420612076616044820152683634b21037bbb732b960b91b606482015260840161076b565b506001600160a01b031660009081526003602052604090205490565b6110ca612734565b6110d4600061296c565b565b6001600160a01b038481166000908152600d602052604090206001015416331461114c5760405162461bcd60e51b815260206004820152602160248201527f43616c6c6572206d7573742062652070726f6a656374207075626c6963206b656044820152607960f81b606482015260840161076b565b6001600160a01b0384166000908152600d602052604090206003015442906111779062093a80614822565b116111c45760405162461bcd60e51b815260206004820152601960248201527f55706461746520706572696f642068617320656c617073656400000000000000604482015260640161076b565b6001600160a01b0384166000908152600d602052604090206004015460ff16156112305760405162461bcd60e51b815260206004820152601b60248201527f436c61696d73206861766520616c726561647920737461727465640000000000604482015260640161076b565b6001600160a01b0384166000908152600d60205260409020838155600501611259828483614b69565b50836001600160a01b03167f1a711ea3d3927f6d3af336a8bb56172181180faaab1678b1b078df5fef23947784848460405161129793929190614c22565b60405180910390a250505050565b6060600e805480602002602001604051908101604052809291908181526020016000905b828210156113755783829060005260206000200180546112e890614693565b80601f016020809104026020016040519081016040528092919081815260200182805461131490614693565b80156113615780601f1061133657610100808354040283529160200191611361565b820191906000526020600020905b81548152906001019060200180831161134457829003601f168201915b5050505050815260200190600101906112c9565b50505050905090565b60066020526000908152604090208054600182015460028301805492936001600160a01b03909216926113b090614693565b80601f01602080910402602001604051908101604052809291908181526020018280546113dc90614693565b80156114295780601f106113fe57610100808354040283529160200191611429565b820191906000526020600020905b81548152906001019060200180831161140c57829003601f168201915b50505050509080600301805461143e90614693565b80601f016020809104026020016040519081016040528092919081815260200182805461146a90614693565b80156114b75780601f1061148c576101008083540402835291602001916114b7565b820191906000526020600020905b81548152906001019060200180831161149a57829003601f168201915b5050505050905084565b606060006114da8367746f6b656e55726960c01b6129be565b905080516000146114eb57806114f4565b6114f483612a3c565b9392505050565b6060600180546106b490614693565b6000806115378686604051602001611523929190614c3c565b604051602081830303815290604052612b29565b90506115858185858080601f016020809104026020016040519081016040528093929190818152602001838380828437600092019190915250506001600160a01b038c169392915050612b64565b979650505050505050565b60405162461bcd60e51b815260206004820152602b60248201527f455243373231207075626c696320736574417070726f76616c466f72416c6c2060448201526a1b9bdd08185b1b1bddd95960aa1b606482015260840161076b565b6115f4612734565b6116d881600e805480602002602001604051908101604052809291908181526020016000905b828210156116c657838290600052602060002001805461163990614693565b80601f016020809104026020016040519081016040528092919081815260200182805461166590614693565b80156116b25780601f10611687576101008083540402835291602001916116b2565b820191906000526020600020905b81548152906001019060200180831161169557829003601f168201915b50505050508152602001906001019061161a565b50505050612bc590919063ffffffff16565b6117245760405162461bcd60e51b815260206004820152601860248201527f476174657761792055524c206e6f7420696e2061727261790000000000000000604482015260640161076b565b61172f600e82612bdb565b7f78cce1870ef98893c5d28ab28dfdff35eedc57d2ee88eec3e0d76637f9755f4381604051610e759190613cfa565b6060600061176e83850185613d3b565b9050611791816001600160a01b0316600090815260066020526040902054151590565b1561181057600b54604051634417838960e11b81526001600160a01b0383811660048301529091169063882f071290602401600060405180830381865afa1580156117e0573d6000803e3d6000fd5b505050506040513d6000823e601f3d908101601f19168201604052611808919081019061490f565b915050611b65565b60008061181f87890189614c4c565b80519193509150611831836001614d17565b60ff168160ff16146118855760405162461bcd60e51b815260206004820152601760248201527f496e76616c696420726573706f6e7365206c656e677468000000000000000000604482015260640161076b565b60ff831615611a055760005b61189c600183614d30565b60ff168160ff161015611a03576000806000806000878660ff16815181106118c6576118c6614d49565b60200260200101518060200190518101906118e19190614dba565b6001600160a01b038085166000908152600d6020526040812060010154969b509499509297509095509350909161191c918d91168585612d95565b506001600160a01b0386166000908152600d602052604081205491925090611949908d9087908a90612ebd565b90508080156119555750815b156119eb57600b54602086015160405163e45f7a4d60e01b81526001600160a01b038f81166004830152602482019290925291169063e45f7a4d90604401600060405180830381865afa1580156119b0573d6000803e3d6000fd5b505050506040513d6000823e601f3d908101601f191682016040526119d8919081019061490f565b9c50505050505050505050505050611b65565b50505050505050806119fc90614ec3565b9050611891565b505b600082611a13600184614d30565b60ff1681518110611a2657611a26614d49565b6020026020010151806020019051810190611a419190614ee2565b9050611a4d858261254b565b604080516001808252818301909252600091816020015b604080518082019091526000815260606020820152815260200190600190039081611a6457905050604080518082018252690636f6e74656e744170760b41b815284519151635a08a29f60e11b8152600481019290925291925060208201907f00000000000000000000000000000000000000000000000000000000000000006001600160a01b03169063b411453e90602401600060405180830381865afa158015611b14573d6000803e3d6000fd5b505050506040513d6000823e601f3d908101601f19168201604052611b3c9190810190614f62565b81525081600081518110611b5257611b52614d49565b6020908102919091010152955050505050505b949350505050565b600d6020526000908152604090208054600182015460028301546003840154600485015460058601805495966001600160a01b03958616969590941694929360ff90921692611bbb90614693565b80601f0160208091040260200160405190810160405280929190818152602001828054611be790614693565b8015611c345780601f10611c0957610100808354040283529160200191611c34565b820191906000526020600020905b815481529060010190602001808311611c1757829003601f168201915b5050505050905086565b611c4d87878787878787612f12565b611c5f87611c5a8961080c565b612859565b50505050505050565b611c70612734565b600c54600160a01b900460ff1615611cca5760405162461bcd60e51b815260206004820152601c60248201527f436f6e747261637420616c726561647920696e697469616c697a656400000000604482015260640161076b565b600a80546001600160a01b038581166001600160a01b03199283168117909355600b8054868316931683179055600c80546001600160a81b031916918516918217600160a01b179055604080519384526020840192909252908201527fd0329eb1332fba2e0d008af9913267bb9db924ebdeb606b30bfd77bc63e450619060600160405180910390a1505050565b611d60612734565b611e3281600e805480602002602001604051908101604052809291908181526020016000905b828210156116c6578382906000526020600020018054611da590614693565b80601f0160208091040260200160405190810160405280929190818152602001828054611dd190614693565b8015611e1e5780601f10611df357610100808354040283529160200191611e1e565b820191906000526020600020905b815481529060010190602001808311611e0157829003601f168201915b505050505081526020019060010190611d86565b15611e7f5760405162461bcd60e51b815260206004820152601960248201527f476174657761792055524c20616c726561647920616464656400000000000000604482015260640161076b565b600e80546001810182556000919091527fbb7b4a454dc3493923482f07822329ed19e8244eff582cc204f8554c3620c3fd01611ebb8282614f96565b507f5b0be19fe4e9c6ec893480e7fda251e1bca4abcc46bfd870cce96a6530f3c66f81604051610e759190613cfa565b60008181526007602052604081205460609190611f1c906001600160a01b031667746f6b656e55726960c01b6129be565b90508051600014611f2d57806114f4565b6114f483613214565b6001600160a01b03851660009081526006602052604090205485903390611f5c90611007565b6001600160a01b031614611fae5760405162461bcd60e51b815260206004820152601960248201527821b0b63632b91036bab9ba1031329031b434b81037bbb732b960391b604482015260640161076b565b612038847f00000000000000000000000000000000000000000000000000000000000000008688604051602001611fe692919061504f565b60408051601f198184030181526020601f890181900481028401810190925287835291908890889081908401838280828437600092019190915250506001600160a01b038d16959493929150506132d6565b6001600160a01b0386811660008181526006602090815260409182902060010180546001600160a01b031916948a169485179055905192835290917fc98258d8d50d3afe77ec0fc7e997e1da70d6c29de2c1df610232f51ad620e8cb910160405180910390a2505050505050565b600c546040516385c48efd60e01b81523360048201526001600160a01b03909116906385c48efd90602401602060405180830381865afa1580156120ee573d6000803e3d6000fd5b505050506040513d601f19601f82011682018060405250810190612112919061472c565b6121565760405162461bcd60e51b815260206004820152601560248201527426bab9ba103132902a29a6902932b3b4b9ba3930b960591b604482015260640161076b565b6001600160a01b038881166000908152600d602052604090206001015416156121c15760405162461bcd60e51b815260206004820152601860248201527f50726f6a65637420616c726561647920656e726f6c6c65640000000000000000604482015260640161076b565b6001600160a01b0387166122175760405162461bcd60e51b815260206004820152601a60248201527f496e76616c69642070726f6a656374207075626c6963206b6579000000000000604482015260640161076b565b600061222f468a60405160200161152392919061504f565b905061227d8186868080601f016020809104026020016040519081016040528093929190818152602001838380828437600092019190915250506001600160a01b038d169392915050612b64565b6122995760405162461bcd60e51b815260040161076b9061506a565b6040518060c00160405280878152602001896001600160a01b03168152602001886001600160a01b0316815260200142815260200160001515815260200184848080601f01602080910402602001604051908101604052809392919081815260200183838082843760009201829052509390945250506001600160a01b03808d168252600d602090815260409283902085518155908501516001820180549184166001600160a01b03199283161790559285015160028201805491909316931692909217905560608301516003820155608083015160048201805491151560ff1990921691909117905560a0830151909150600582019061239a9082614f96565b50905050876001600160a01b0316896001600160a01b0316336001600160a01b03167f7af1c542bd5479b321f57dfeaf5572c19948b4558be009646191d5472963a2968a8a8888604051610d8a9493929190615095565b6123f9612734565b6001600160a01b03811661245e5760405162461bcd60e51b815260206004820152602660248201527f4f776e61626c653a206e6577206f776e657220697320746865207a65726f206160448201526564647265737360d01b606482015260840161076b565b6124678161296c565b50565b60006001600160e01b031982166380ac58cd60e01b148061249b57506001600160e01b03198216635b5e139f60e01b145b8061069f57506301ffc9a760e01b6001600160e01b031983161461069f565b6000806124c986868686612d95565b91509150818190611c5f5760405162461bcd60e51b815260040161076b9190613cfa565b6124f984848484612ebd565b6125455760405162461bcd60e51b815260206004820152601860248201527f496e76616c69642054534d206d65726b6c652070726f6f660000000000000000604482015260640161076b565b50505050565b80516020820151604080840151905163185b9eb960e11b81526000936001600160a01b037f000000000000000000000000000000000000000000000000000000000000000016936330b73d72936125a7938991906004016150bd565b602060405180830381865afa1580156125c4573d6000803e3d6000fd5b505050506040513d601f19601f820116820180604052508101906125e8919061472c565b90508061264b5760405162461bcd60e51b815260206004820152602b60248201527f43686970206e6f7420656e726f6c6c65642077697468204d616e75666163747560448201526a726572526567697374727960a81b606482015260840161076b565b505050565b600880546000918291908261266483615121565b919050559050612674858261335c565b600081815260076020908152604080832080546001600160a01b03199081166001600160a01b038a81169182179093558689528552600684529382902087518155928701516001840180549095169116179092559084015184919060028201906126de9082614f96565b50606082015160038201906126f39082614f96565b50506040516001600160a01b038616915082907f1e98ed4919fa421d4b871082794f2c63228dd0b5efb584e1a6131de3a7d26cb290600090a3949350505050565b6009546001600160a01b031633146110d45760405162461bcd60e51b815260206004820181905260248201527f4f776e61626c653a2063616c6c6572206973206e6f7420746865206f776e6572604482015260640161076b565b6001600160a01b038516600090815260066020526040902054859033906127b490611007565b6001600160a01b0316146128065760405162461bcd60e51b815260206004820152601960248201527821b0b63632b91036bab9ba1031329031b434b81037bbb732b960391b604482015260640161076b565b61283e847f00000000000000000000000000000000000000000000000000000000000000008688604051602001611fe692919061504f565b612851338661284c8961077c565b6134e7565b505050505050565b6001600160a01b03821660009081526006602052604081206003018054612907919061288490614693565b80601f01602080910402602001604051908101604052809291908181526020018280546128b090614693565b80156128fd5780601f106128d2576101008083540402835291602001916128fd565b820191906000526020600020905b8154815290600101906020018083116128e057829003601f168201915b505050505061364b565b50600a54604051637161ad1960e01b8152600481018390526001600160a01b038581166024830152929350911690637161ad1990604401600060405180830381600087803b15801561295857600080fd5b505af1158015611c5f573d6000803e3d6000fd5b600980546001600160a01b038381166001600160a01b0319831681179093556040519116919082907f8be0079c531659141344cd1fd0a4f28419497f9722a3daafe3b4186f6b6457e090600090a35050565b600b54604051630a61adb760e21b81526001600160a01b03848116600483015260248201849052606092600092911690632986b6dc90604401600060405180830381865afa158015612a14573d6000803e3d6000fd5b505050506040513d6000823e601f3d908101601f19168201604052611b659190810190614f62565b606081612a60816001600160a01b0316600090815260066020526040902054151590565b612a7c5760405162461bcd60e51b815260040161076b906146fe565b6001600160a01b03831660009081526006602052604090206002018054612aa290614693565b80601f0160208091040260200160405190810160405280929190818152602001828054612ace90614693565b8015612b1b5780601f10612af057610100808354040283529160200191612b1b565b820191906000526020600020905b815481529060010190602001808311612afe57829003601f168201915b505050505091505b50919050565b6000612b35825161366b565b82604051602001612b4792919061513a565b604051602081830303815290604052805190602001209050919050565b6000806000612b7385856136fd565b90925090506000816004811115612b8c57612b8c615195565b148015612baa5750856001600160a01b0316826001600160a01b0316145b80612bbb5750612bbb868686613742565b9695505050505050565b600080612bd2848461382e565b95945050505050565b600080612cb884805480602002602001604051908101604052809291908181526020016000905b82821015612cae578382906000526020600020018054612c2190614693565b80601f0160208091040260200160405190810160405280929190818152602001828054612c4d90614693565b8015612c9a5780601f10612c6f57610100808354040283529160200191612c9a565b820191906000526020600020905b815481529060010190602001808311612c7d57829003601f168201915b505050505081526020019060010190612c02565b505050508461382e565b9150915080612d005760405162461bcd60e51b815260206004820152601460248201527329ba3934b733903737ba1034b71030b93930bc9760611b604482015260640161076b565b8354600090612d11906001906151ab565b9050808314612d6057848181548110612d2c57612d2c614d49565b90600052602060002001858481548110612d4857612d48614d49565b906000526020600020019081612d5e91906151be565b505b84805480612d7057612d7061528a565b600190038181906000526020600020016000612d8c9190613c29565b90555050505050565b600060606000612dc287604051602001611523919060609190911b6001600160601b031916815260140190565b6040516001600160601b0319606089901b166020820152909150600090612deb90603401611523565b9050612e016001600160a01b0388168388612b64565b612e485760006040518060400160405280601781526020017f496e76616c69642054534d206365727469666963617465000000000000000000815250935093505050612eb4565b612e5c6001600160a01b0389168287612b64565b612e9b5760006040518060400160405280601581526020017424b73b30b634b21031bab9ba37b23c90383937b7b360591b815250935093505050612eb4565b6001604051806020016040528060008152509350935050505b94509492505050565b60008084600001518685876040015188602001518960600151604051602001612eeb969594939291906152a0565b604051602081830303815290604052805190602001209050612bbb8560800151848361389c565b86612f34816001600160a01b0316600090815260066020526040902054151590565b612f505760405162461bcd60e51b815260040161076b906146fe565b6001600160a01b03808916600090815260066020908152604080832081516080810183528154815260018201549095169285019290925260028201805493949391840191612f9d90614693565b80601f0160208091040260200160405190810160405280929190818152602001828054612fc990614693565b80156130165780601f10612feb57610100808354040283529160200191613016565b820191906000526020600020905b815481529060010190602001808311612ff957829003601f168201915b5050505050815260200160038201805461302f90614693565b80601f016020809104026020016040519081016040528092919081815260200182805461305b90614693565b80156130a85780601f1061307d576101008083540402835291602001916130a8565b820191906000526020600020905b81548152906001019060200180831161308b57829003601f168201915b505050505081525050905060006130c28260000151611007565b905060006130de8a8a8a604051602001611523939291906152f4565b90506131428188888080601f016020809104026020016040519081016040528093929190818152602001838380828437600081840152601f19601f820116905080830192505050505050508d6001600160a01b0316612b649092919063ffffffff16565b61315e5760405162461bcd60e51b815260040161076b9061506a565b841561318857613183828b8560000151604051806020016040528060008152506138b2565b613197565b613197828b85600001516134e7565b82602001516001600160a01b031663f041198b8c8c33868e8e8e8e6040518963ffffffff1660e01b81526004016131d5989796959493929190615320565b600060405180830381600087803b1580156131ef57600080fd5b505af1158015613203573d6000803e3d6000fd5b505050505050505050505050505050565b606061321f826138e5565b6000828152600760209081526040808320546001600160a01b0316835260069091529020600201805461325190614693565b80601f016020809104026020016040519081016040528092919081815260200182805461327d90614693565b80156132ca5780601f1061329f576101008083540402835291602001916132ca565b820191906000526020600020905b8154815290600101906020018083116132ad57829003601f168201915b50505050509050919050565b6132f36132e283612b29565b6001600160a01b0387169083612b64565b61330f5760405162461bcd60e51b815260040161076b9061506a565b6133198385614822565b4311156110005760405162461bcd60e51b815260206004820152601160248201527014da59db985d1d5c9948195e1c1a5c9959607a1b604482015260640161076b565b6001600160a01b0382166133b25760405162461bcd60e51b815260206004820181905260248201527f4552433732313a206d696e7420746f20746865207a65726f2061646472657373604482015260640161076b565b6000818152600260205260409020546001600160a01b0316156134175760405162461bcd60e51b815260206004820152601c60248201527f4552433732313a20746f6b656e20616c7265616479206d696e74656400000000604482015260640161076b565b6000818152600260205260409020546001600160a01b03161561347c5760405162461bcd60e51b815260206004820152601c60248201527f4552433732313a20746f6b656e20616c7265616479206d696e74656400000000604482015260640161076b565b6001600160a01b038216600081815260036020908152604080832080546001019055848352600290915280822080546001600160a01b0319168417905551839291907fddf252ad1be2c89b69c2b068fc378daa952ba7f163c4a11628f55a4df523b3ef908290a45050565b826001600160a01b03166134fa82611007565b6001600160a01b0316146135205760405162461bcd60e51b815260040161076b9061537f565b6001600160a01b0382166135825760405162461bcd60e51b8152602060048201526024808201527f4552433732313a207472616e7366657220746f20746865207a65726f206164646044820152637265737360e01b606482015260840161076b565b826001600160a01b031661359582611007565b6001600160a01b0316146135bb5760405162461bcd60e51b815260040161076b9061537f565b600081815260046020908152604080832080546001600160a01b03199081169091556001600160a01b0387811680865260038552838620805460001901905590871680865283862080546001019055868652600290945282852080549092168417909155905184937fddf252ad1be2c89b69c2b068fc378daa952ba7f163c4a11628f55a4df523b3ef91a4505050565b6000808280602001905181019061366291906153c4565b91509150915091565b6060600061367883613919565b60010190506000816001600160401b0381111561369757613697613d84565b6040519080825280601f01601f1916602001820160405280156136c1576020820181803683370190505b5090508181016020015b600019016f181899199a1a9b1b9c1cb0b131b232b360811b600a86061a8153600a85049450846136cb57509392505050565b60008082516041036137335760208301516040840151606085015160001a613727878285856139f1565b9450945050505061373b565b506000905060025b9250929050565b6000806000856001600160a01b0316631626ba7e60e01b868660405160240161376c9291906153e8565b60408051601f198184030181529181526020820180516001600160e01b03166001600160e01b03199094169390931790925290516137aa9190615401565b600060405180830381855afa9150503d80600081146137e5576040519150601f19603f3d011682016040523d82523d6000602084013e6137ea565b606091505b50915091508180156137fe57506020815110155b8015612bbb57508051630b135d3f60e11b906138239083016020908101908401615413565b149695505050505050565b81516000908190815b8181101561388c57848051906020012086828151811061385957613859614d49565b6020026020010151805190602001200361387a5792506001915061373b9050565b8061388481615121565b915050613837565b5060001995600095509350505050565b6000826138a98584613ab2565b14949350505050565b6138bd8484846134e7565b6138c984848484613aff565b6125455760405162461bcd60e51b815260040161076b9061542c565b6000818152600260205260409020546001600160a01b03166124675760405162461bcd60e51b815260040161076b906146c7565b60008072184f03e93ff9f4daa797ed6e38ed64bf6a1f0160401b83106139585772184f03e93ff9f4daa797ed6e38ed64bf6a1f0160401b830492506040015b6d04ee2d6d415b85acef81000000008310613984576d04ee2d6d415b85acef8100000000830492506020015b662386f26fc1000083106139a257662386f26fc10000830492506010015b6305f5e10083106139ba576305f5e100830492506008015b61271083106139ce57612710830492506004015b606483106139e0576064830492506002015b600a831061069f5760010192915050565b6000807f7fffffffffffffffffffffffffffffff5d576e7357a4501ddfe92f46681b20a0831115613a285750600090506003612eb4565b6040805160008082526020820180845289905260ff881692820192909252606081018690526080810185905260019060a0016020604051602081039080840390855afa158015613a7c573d6000803e3d6000fd5b5050604051601f1901519150506001600160a01b038116613aa557600060019250925050612eb4565b9660009650945050505050565b600081815b8451811015613af757613ae382868381518110613ad657613ad6614d49565b6020026020010151613bfd565b915080613aef81615121565b915050613ab7565b509392505050565b60006001600160a01b0384163b15613bf557604051630a85bd0160e11b81526001600160a01b0385169063150b7a0290613b4390339089908890889060040161547e565b6020604051808303816000875af1925050508015613b7e575060408051601f3d908101601f19168201909252613b7b918101906154b1565b60015b613bdb573d808015613bac576040519150601f19603f3d011682016040523d82523d6000602084013e613bb1565b606091505b508051600003613bd35760405162461bcd60e51b815260040161076b9061542c565b805181602001fd5b6001600160e01b031916630a85bd0160e11b149050611b65565b506001611b65565b6000818310613c195760008281526020849052604090206114f4565b5060009182526020526040902090565b508054613c3590614693565b6000825580601f10613c45575050565b601f01602090049060005260206000209081019061246791905b80821115613c735760008155600101613c5f565b5090565b6001600160e01b03198116811461246757600080fd5b600060208284031215613c9f57600080fd5b81356114f481613c77565b60005b83811015613cc5578181015183820152602001613cad565b50506000910152565b60008151808452613ce6816020860160208601613caa565b601f01601f19169290920160200192915050565b6020815260006114f46020830184613cce565b600060208284031215613d1f57600080fd5b5035919050565b6001600160a01b038116811461246757600080fd5b600060208284031215613d4d57600080fd5b81356114f481613d26565b60008060408385031215613d6b57600080fd5b8235613d7681613d26565b946020939093013593505050565b634e487b7160e01b600052604160045260246000fd5b604051606081016001600160401b0381118282101715613dbc57613dbc613d84565b60405290565b604080519081016001600160401b0381118282101715613dbc57613dbc613d84565b60405160a081016001600160401b0381118282101715613dbc57613dbc613d84565b604051601f8201601f191681016001600160401b0381118282101715613e2e57613e2e613d84565b604052919050565b60006001600160401b03821115613e4f57613e4f613d84565b5060051b60200190565b600082601f830112613e6a57600080fd5b81356020613e7f613e7a83613e36565b613e06565b82815260059290921b84018101918181019086841115613e9e57600080fd5b8286015b84811015613eb95780358352918301918301613ea2565b509695505050505050565b600060608284031215613ed657600080fd5b613ede613d9a565b9050813581526020820135602082015260408201356001600160401b03811115613f0757600080fd5b613f1384828501613e59565b60408301525092915050565b60006001600160401b03821115613f3857613f38613d84565b50601f01601f191660200190565b600082601f830112613f5757600080fd5b8135613f65613e7a82613f1f565b818152846020838601011115613f7a57600080fd5b816020850160208301376000918101602001919091529392505050565b600080600080600060a08688031215613faf57600080fd5b8535613fba81613d26565b945060208601356001600160401b0380821115613fd657600080fd5b908701906060828a031215613fea57600080fd5b9094506040870135908082111561400057600080fd5b61400c89838a01613ec4565b9450606088013591508082111561402257600080fd5b61402e89838a01613f46565b9350608088013591508082111561404457600080fd5b5061405188828901613f46565b9150509295509295909350565b60008060006060848603121561407357600080fd5b833561407e81613d26565b9250602084013561408e81613d26565b929592945050506040919091013590565b60006020808301818452808551808352604092508286019150828160051b87010184880160005b8381101561410557888303603f190185528151805184528701518784018790526140f287850182613cce565b95880195935050908601906001016140c6565b509098975050505050505050565b60008083601f84011261412557600080fd5b5081356001600160401b0381111561413c57600080fd5b60208301915083602082850101111561373b57600080fd5b60008060008060006080868803121561416c57600080fd5b853561417781613d26565b9450602086013561418781613d26565b93506040860135925060608601356001600160401b038111156141a957600080fd5b6141b588828901614113565b969995985093965092949392505050565b600080600080606085870312156141dc57600080fd5b84356141e781613d26565b93506020850135925060408501356001600160401b0381111561420957600080fd5b61421587828801614113565b95989497509550505050565b6000602080830181845280855180835260408601915060408160051b870101925083870160005b8281101561427657603f19888603018452614264858351613cce565b94509285019290850190600101614248565b5092979650505050505050565b8481526001600160a01b03841660208201526080604082018190526000906142ad90830185613cce565b82810360608401526115858185613cce565b6000806000806000606086880312156142d757600080fd5b85356142e281613d26565b945060208601356001600160401b03808211156142fe57600080fd5b61430a89838a01614113565b9096509450604088013591508082111561432357600080fd5b506141b588828901614113565b801515811461246757600080fd5b6000806040838503121561435157600080fd5b823561435c81613d26565b9150602083013561436c81614330565b809150509250929050565b60006020828403121561438957600080fd5b81356001600160401b0381111561439f57600080fd5b611b6584828501613f46565b600080600080604085870312156143c157600080fd5b84356001600160401b03808211156143d857600080fd5b6143e488838901614113565b909650945060208701359150808211156143fd57600080fd5b5061421587828801614113565b8681526001600160a01b0386811660208301528516604082015260608101849052821515608082015260c060a0820181905260009061444b90830184613cce565b98975050505050505050565b6000806000806080858703121561446d57600080fd5b843561447881613d26565b9350602085013561448881613d26565b92506040850135915060608501356001600160401b038111156144aa57600080fd5b6144b687828801613f46565b91505092959194509250565b600080600080600080600060a0888a0312156144dd57600080fd5b87356144e881613d26565b965060208801356144f881613d26565b955060408801356001600160401b038082111561451457600080fd5b6145208b838c01614113565b909750955060608a013591508082111561453957600080fd5b506145468a828b01614113565b909450925050608088013561455a81614330565b8091505092959891949750929550565b60008060006060848603121561457f57600080fd5b833561458a81613d26565b9250602084013561459a81613d26565b915060408401356145aa81613d26565b809150509250925092565b60008060008060008060008060c0898b0312156145d157600080fd5b88356145dc81613d26565b975060208901356145ec81613d26565b965060408901356145fc81613d26565b95506060890135945060808901356001600160401b038082111561461f57600080fd5b61462b8c838d01614113565b909650945060a08b013591508082111561464457600080fd5b506146518b828c01614113565b999c989b5096995094979396929594505050565b6000806040838503121561467857600080fd5b823561468381613d26565b9150602083013561436c81613d26565b600181811c908216806146a757607f821691505b602082108103612b2357634e487b7160e01b600052602260045260246000fd5b60208082526018908201527f4552433732313a20696e76616c696420746f6b656e2049440000000000000000604082015260600190565b60208082526014908201527310da1a5c081b5d5cdd0818994818db185a5b595960621b604082015260600190565b60006020828403121561473e57600080fd5b81516114f481614330565b60008235609e1983360301811261475f57600080fd5b9190910192915050565b600060a0823603121561477b57600080fd5b60405160a081016001600160401b03828210818311171561479e5761479e613d84565b8160405284358352602085013560208401526040850135604084015260608501359150808211156147ce57600080fd5b6147da36838701613f46565b606084015260808501359150808211156147f357600080fd5b5061480036828601613e59565b60808301525092915050565b634e487b7160e01b600052601160045260246000fd5b8082018082111561069f5761069f61480c565b6000808335601e1984360301811261484c57600080fd5b8301803591506001600160401b0382111561486657600080fd5b60200191503681900382131561373b57600080fd5b81835281816020850137506000828201602090810191909152601f909101601f19169091010190565b85815284602082015283604082015260806060820152600061158560808301848661487b565b600082601f8301126148db57600080fd5b81516148e9613e7a82613f1f565b8181528460208386010111156148fe57600080fd5b611b65826020830160208701613caa565b6000602080838503121561492257600080fd5b82516001600160401b038082111561493957600080fd5b818501915085601f83011261494d57600080fd5b815161495b613e7a82613e36565b81815260059190911b8301840190848101908883111561497a57600080fd5b8585015b838110156149f0578051858111156149965760008081fd5b86016040818c03601f19018113156149ae5760008081fd5b6149b6613dc2565b828a015181529082015190878211156149cf5760008081fd5b6149dd8d8b848601016148ca565b818b01528552505091860191860161497e565b5098975050505050505050565b600060a0820160018060a01b0388168352602060a08185015281885480845260c0860191506005935060c081851b87010160008b8152848120815b84811015614acb5760bf198a8503018652828254614a5581614693565b80875260018281168015614a705760018114614a8957614ab4565b60ff198416898d01528215158d1b89018c019450614ab4565b8688528b8820885b84811015614aac5781548b82018f0152908301908d01614a91565b8a018d019550505b50988a019892965050509190910190600101614a38565b5050508681036040880152614ae0818b613cce565b945050505050614afc60608401866001600160e01b0319169052565b828103608084015261444b8185613cce565b601f82111561264b57600081815260208120601f850160051c81016020861015614b355750805b601f850160051c820191505b8181101561285157828155600101614b41565b600019600383901b1c191660019190911b1790565b6001600160401b03831115614b8057614b80613d84565b614b9483614b8e8354614693565b83614b0e565b6000601f841160018114614bc25760008515614bb05750838201355b614bba8682614b54565b845550611000565b600083815260209020601f19861690835b82811015614bf35786850135825560209485019460019092019101614bd3565b5086821015614c105760001960f88860031b161c19848701351681555b505060018560011b0183555050505050565b838152604060208201526000612bd260408301848661487b565b8183823760009101908152919050565b60008060408385031215614c5f57600080fd5b823560ff81168114614c7057600080fd5b91506020838101356001600160401b0380821115614c8d57600080fd5b818601915086601f830112614ca157600080fd5b8135614caf613e7a82613e36565b81815260059190911b83018401908481019089831115614cce57600080fd5b8585015b83811015614d0657803585811115614cea5760008081fd5b614cf88c89838a0101613f46565b845250918601918601614cd2565b508096505050505050509250929050565b60ff818116838216019081111561069f5761069f61480c565b60ff828116828216039081111561069f5761069f61480c565b634e487b7160e01b600052603260045260246000fd5b600082601f830112614d7057600080fd5b81516020614d80613e7a83613e36565b82815260059290921b84018101918181019086841115614d9f57600080fd5b8286015b84811015613eb95780518352918301918301614da3565b600080600080600060a08688031215614dd257600080fd5b855194506020860151614de481613d26565b60408701519094506001600160401b0380821115614e0157600080fd5b9087019060a0828a031215614e1557600080fd5b614e1d613de4565b825181526020830151602082015260408301516040820152606083015182811115614e4757600080fd5b614e538b8286016148ca565b606083015250608083015182811115614e6b57600080fd5b614e778b828601614d5f565b6080830152506060890151909550915080821115614e9457600080fd5b614ea089838a016148ca565b93506080880151915080821115614eb657600080fd5b50614051888289016148ca565b600060ff821660ff8103614ed957614ed961480c565b60010192915050565b600060208284031215614ef457600080fd5b81516001600160401b0380821115614f0b57600080fd5b9083019060608286031215614f1f57600080fd5b614f27613d9a565b8251815260208301516020820152604083015182811115614f4757600080fd5b614f5387828601614d5f565b60408301525095945050505050565b600060208284031215614f7457600080fd5b81516001600160401b03811115614f8a57600080fd5b611b65848285016148ca565b81516001600160401b03811115614faf57614faf613d84565b614fc381614fbd8454614693565b84614b0e565b602080601f831160018114614ff25760008415614fe05750858301515b614fea8582614b54565b865550612851565b600085815260208120601f198616915b8281101561502157888601518255948401946001909101908401615002565b508582101561503f5787850151600019600388901b60f8161c191681555b5050505050600190811b01905550565b91825260601b6001600160601b031916602082015260340190565b602080825260119082015270496e76616c6964207369676e617475726560781b604082015260600190565b60018060a01b0385168152836020820152606060408201526000612bbb60608301848661487b565b84815260208082018590526001600160a01b038416604083015260806060830181905283519083018190526000918481019160a0850190845b81811015615112578451835293830193918301916001016150f6565b50909998505050505050505050565b6000600182016151335761513361480c565b5060010190565b7f19457468657265756d205369676e6564204d6573736167653a0a00000000000081526000835161517281601a850160208801613caa565b83519083019061518981601a840160208801613caa565b01601a01949350505050565b634e487b7160e01b600052602160045260246000fd5b8181038181111561069f5761069f61480c565b8181036151c9575050565b6151d38254614693565b6001600160401b038111156151ea576151ea613d84565b6151f881614fbd8454614693565b6000601f82116001811461522657600083156152145750848201545b61521e8482614b54565b855550611000565b600085815260209020601f19841690600086815260209020845b838110156152605782860154825560019586019590910190602001615240565b508583101561503f5793015460001960f8600387901b161c19169092555050600190811b01905550565b634e487b7160e01b600052603160045260246000fd5b8681526bffffffffffffffffffffffff198660601b166020820152846034820152836054820152826074820152600082516152e2816094850160208701613caa565b91909101609401979650505050505050565b6bffffffffffffffffffffffff198460601b168152818360148301376000910160140190815292915050565b6001600160a01b038981168252888116602083015287811660408301528616606082015260c06080820181905260009061535d908301868861487b565b82810360a084015261537081858761487b565b9b9a5050505050505050505050565b60208082526025908201527f4552433732313a207472616e736665722066726f6d20696e636f72726563742060408201526437bbb732b960d91b606082015260800190565b600080604083850312156153d757600080fd5b505080516020909101519092909150565b828152604060208201526000611b656040830184613cce565b6000825161475f818460208701613caa565b60006020828403121561542557600080fd5b5051919050565b60208082526032908201527f4552433732313a207472616e7366657220746f206e6f6e20455243373231526560408201527131b2b4bb32b91034b6b83632b6b2b73a32b960711b606082015260800190565b6001600160a01b0385811682528416602082015260408101839052608060608201819052600090612bbb90830184613cce565b6000602082840312156154c357600080fd5b81516114f481613c7756fea26469706673582212207d3654be1855b190a947b2397a2355364a961882a0430d5e1a0e473247021c8f64736f6c63430008110033",
  "linkReferences": {},
  "deployedLinkReferences": {}
}